:020000040800F2
:1000000000800120F1150008ED130008F31300082B
:10001000F9130008FF130008051400080000000091
:100020000000000000000000000000000B140008A9
:1000300019140008000000002714000835140008F7
:100040004116000841160008411600084116000834
:100050004116000841160008411600084116000824
:100060004116000841160008411600084116000814
:100070004116000841160008411600084116000804
:100080004116000841160008411600080000000053
:100090000000000000000000000000004116000801
:1000A00041160008411600084116000841160008D4
:1000B00041160008411600084116000841160008C4
:1000C00041160008411600084116000841160008B4
:1000D0004116000841160008411600080000000003
:1000E00041160008411600084116000800000000F3
:1000F00000000000000000000000000041160008A1
:1001000000000000411600084116000841160008D2
:1001100000000000000000000000000000000000DF
:100120004116000841160008411600084116000853
:100130004116000800000000000000000000000060
:100140000000000000000000000000004116000850
:100150004116000841160008411600084116000823
:1001600041160008411600080000000000000000D1
:10017000000000000000000000000000000000007F
:100180000000000041160008000000000000000010
:04019000411600080C
:1001A00010B5054C237833B9044B13B10448AFF3B1
:1001B00000800123237010BDDC010020000000003E
:1001C0000062000808B5034B1BB103490348AFF3B5
:1001D000008008BD00000000E0010020006200086F
:1001E000034613F8012B002AFBD1181A0138704777
:1001F00001F0FF01102A2BDB10F0070F08D010F8D8
:10020000013B013A8B422DD010F0070F42B3F6D1DB
:10021000F0B441EA012141EA014122F007047FF0F4
:1002200000070023F0E80256083C85EA010586EA4B
:10023000010685FA47F5A3FA87F586FA47F6A5FA87
:1002400087F68EB9EED1F0BC01F0FF0102F0070293
:1002500032B110F8013B013A83EA010313B1F8D13E
:100260000020704701387047002D06BF354603381F
:10027000073815F0010F07D1013015F4807F02BF58
:10028000013015F4C03F0130F0BC0138704700BFA9
:1002900081F0004102E000BF83F0004330B54FEA37
:1002A00041044FEA430594EA050F08BF90EA020FA4
:1002B0001FBF54EA000C55EA020C7FEA645C7FEA37
:1002C000655C00F0E2804FEA5454D4EB5555B8BF5A
:1002D0006D420CDD2C4480EA020281EA030382EACB
:1002E000000083EA010180EA020281EA0303362D5D
:1002F00088BF30BD11F0004F4FEA01314FF4801C30
:100300004CEA113102D0404261EB410113F0004F41
:100310004FEA03334CEA133302D0524263EB4303F8
:1003200094EA050F00F0A780A4F10104D5F1200E96
:100330000DDB02FA0EFC22FA05F2801841F10001F1
:1003400003FA0EF2801843FA05F359410EE0A5F1C5
:1003500020050EF1200E012A03FA0EFC28BF4CF0F6
:10036000020C43FA05F3C01851EBE37101F00045AC
:1003700007D54FF0000EDCF1000C7EEB00006EEBB9
:100380000101B1F5801F1BD3B1F5001F0CD3490843
:100390005FEA30004FEA3C0C04F101044FEA44529A
:1003A00012F5800F80F09A80BCF1004F08BF5FEA21
:1003B000500C50F1000041EB045141EA050130BD01
:1003C0005FEA4C0C404141EB0101013C28BFB1F513
:1003D000801FE9D291F0000F04BF01460020B1FA5E
:1003E00081F308BF2033A3F10B03B3F120020CDA31
:1003F0000C3208DD02F1140CC2F10C0201FA0CF00F
:1004000021FA02F10CE002F11402D8BFC2F1200C73
:1004100001FA02F120FA0CFCDCBF41EA0C01904029
:10042000E41AA2BF01EB0451294330BD6FEA040472
:100430001F3C1CDA0C340EDC04F11404C4F120025D
:1004400020FA04F001FA02F340EA030021FA04F36F
:1004500045EA030130BDC4F10C04C4F1200220FAC6
:1004600002F001FA04F340EA0300294630BD21FA04
:1004700004F0294630BD94F0000F83F4801306BFCA
:1004800081F480110134013D4EE77FEA645C18BFBE
:100490007FEA655C29D094EA050F08BF90EA020F55
:1004A00005D054EA000C04BF1946104630BD91EA4D
:1004B000030F1EBF0021002030BD5FEA545C05D150
:1004C0004000494128BF41F0004130BD14F580048F
:1004D0003CBF01F5801130BD01F0004545F0FE4103
:1004E00041F470014FF0000030BD7FEA645C1ABF38
:1004F000194610467FEA655C1CBF0B46024650EA6F
:10050000013406BF52EA033591EA030F41F400219A
:1005100030BD00BF90F0000F04BF0021704730B520
:100520004FF4806404F132044FF000054FF00001F5
:1005300050E700BF90F0000F04BF0021704730B5B6
:100540004FF4806404F1320410F0004548BF40428B
:100550004FF000013EE700BF42004FEAE2014FEAE0
:1005600031014FEA02701FBF12F07F4393F07F4FBB
:1005700081F06051704732F07F4208BF704793F0BE
:100580007F4F04BF41F40021704730B54FF46074D1
:1005900001F0004521F000411CE700BF50EA0102D4
:1005A00008BF704730B54FF000050AE050EA01027D
:1005B00008BF704730B511F0004502D5404261EBED
:1005C00041014FF4806404F132045FEA915C3FF42E
:1005D000D8AE4FF003025FEADC0C18BF03325FEACB
:1005E000DC0C18BF033202EBDC02C2F1200300FA7C
:1005F00003FC20FA02F001FA03FE40EA0E0021FAA1
:1006000002F11444BDE600BF70B54FF0FF0C4CF48E
:10061000E06C1CEA11541DBF1CEA135594EA0C0F40
:1006200095EA0C0F00F0DEF82C4481EA030621EA7B
:100630004C5123EA4C5350EA013518BF52EA0335B6
:1006400041F4801143F4801338D0A0FB02CE4FF068
:100650000005E1FB02E506F00042E0FB03E54FF098
:100660000006E1FB03569CF0000F18BF4EF0010E90
:10067000A4F1FF04B6F5007F64F5407404D25FEA8C
:100680004E0E6D4146EB060642EAC62141EA55513F
:100690004FEAC52040EA5E504FEACE2EB4F1FD0C81
:1006A00088BFBCF5E06F1ED8BEF1004F08BF5FEAFF
:1006B000500E50F1000041EB045170BD06F00046B1
:1006C00046EA010140EA020081EA0301B4EB5C045E
:1006D000C2BFD4EB0C0541EA045170BD41F4801156
:1006E0004FF0000E013C00F3AB8014F1360FDEBF7B
:1006F000002001F0004170BDC4F10004203C35DA57
:100700000C341BDC04F11404C4F1200500FA05F3D9
:1007100020FA04F001FA05F240EA020001F000427A
:1007200021F0004110EBD37021FA04F642EB0601F0
:100730005EEA430E08BF20EAD37070BDC4F10C041A
:10074000C4F1200500FA04F320FA05F001FA04F2DE
:1007500040EA020001F0004110EBD37041F10001CA
:100760005EEA430E08BF20EAD37070BDC4F12005D5
:1007700000FA05F24EEA020E20FA04F301FA05F23D
:1007800043EA020321FA04F001F0004121FA04F2E5
:1007900020EA020000EBD3705EEA430E08BF20EAB5
:1007A000D37070BD94F0000F0FD101F000464000EF
:1007B00041EB010111F4801F08BF013CF7D041EA71
:1007C000060195F0000F18BF704703F00046520075
:1007D00043EB030313F4801F08BF013DF7D043EA46
:1007E0000603704794EA0C0F0CEA135518BF95EAFC
:1007F0000C0F0CD050EA410618BF52EA4306D1D183
:1008000081EA030101F000414FF0000070BD50EAA1
:10081000410606BF1046194652EA430619D094EA2B
:100820000C0F02D150EA013613D195EA0C0F05D115
:1008300052EA03361CBF104619460AD181EA030169
:1008400001F0004141F0FE4141F470014FF0000021
:1008500070BD41F0FE4141F4780170BD70B54FF0BC
:10086000FF0C4CF4E06C1CEA11541DBF1CEA13553C
:1008700094EA0C0F95EA0C0F00F0A7F8A4EB05041E
:1008800081EA030E52EA03354FEA013100F0888015
:100890004FEA03334FF0805545EA131343EA1263DE
:1008A0004FEA022245EA111545EA10654FEA002693
:1008B0000EF000419D4208BF964244F1FD0404F54C
:1008C000407402D25B084FEA3202B61A65EB0305A8
:1008D0005B084FEA32024FF480104FF4002CB6EB65
:1008E000020E75EB030E22BFB61A754640EA0C00E5
:1008F0005B084FEA3202B6EB020E75EB030E22BF25
:10090000B61A754640EA5C005B084FEA3202B6EB65
:10091000020E75EB030E22BFB61A754640EA9C0024
:100920005B084FEA3202B6EB020E75EB030E22BFF4
:10093000B61A754640EADC0055EA060E18D04FEAB2
:10094000051545EA16754FEA06164FEAC30343EA52
:1009500052734FEAC2025FEA1C1CC0D111F4801F1F
:100960000BD141EA00014FF000004FF0004CB6E718
:1009700011F4801F04BF01430020B4F1FD0C88BFB7
:10098000BCF5E06F3FF6AFAEB5EB030C04BFB6EBC2
:10099000020C5FEA500C50F1000041EB045170BDB5
:1009A0000EF0004E4EEA113114EB5C04C2BFD4EBE2
:1009B0000C0541EA045170BD41F480114FF0000E66
:1009C000013C90E645EA060E8DE60CEA135594EAE2
:1009D0000C0F08BF95EA0C0F3FF43BAF94EA0C0FE5
:1009E0000AD150EA01347FF434AF95EA0C0F7FF45A
:1009F00025AF104619462CE795EA0C0F06D152EAAE
:100A000003353FF4FDAE1046194622E750EA410691
:100A100018BF52EA43067FF4C5AE50EA41047FF4A2
:100A20000DAF52EA43057FF4EBAE12E74FF0FF3C07
:100A300006E000BF4FF0010C02E000BF4FF0010CD8
:100A40004DF804CD4FEA410C7FEA6C5C4FEA430C51
:100A500018BF7FEA6C5C1BD001B050EA410C0CBFA0
:100A600052EA430C91EA030F02BF90EA020F002002
:100A7000704710F1000F91EA030F58BF994208BF69
:100A800090422CBFD8176FEAE37040F00100704726
:100A90004FEA410C7FEA6C5C02D150EA013C07D17D
:100AA0004FEA430C7FEA6C5CD6D152EA033CD3D0C8
:100AB0005DF8040B704700BF8446104662468C46C2
:100AC0001946634600E000BF01B5FFF7B7FF0028F5
:100AD00048BF10F1000F01BD4DF808EDFFF7F4FF1E
:100AE0000CBF012000205DF808FB00BF4DF808EDA9
:100AF000FFF7EAFF34BF012000205DF808FB00BFCC
:100B00004DF808EDFFF7E0FF94BF012000205DF8ED
:100B100008FB00BF4DF808EDFFF7CEFF94BF0120A2
:100B200000205DF808FB00BF4DF808EDFFF7C4FF9B
:100B300034BF012000205DF808FB00BF4FEA410CE4
:100B40007FEA6C5C02D150EA013C0AD14FEA430CC7
:100B50007FEA6C5C02D152EA033C02D14FF0000004
:100B600070474FF0010070474FEA410212F5001242
:100B700015D211D56FF47873B3EB625212D94FEAE4
:100B8000C12343F0004343EA505311F0004F23FACE
:100B900002F018BF404270474FF00000704750EA23
:100BA000013005D111F0004008BF6FF000407047E0
:100BB0004FF00000704700BF4FEA4102B2F1E0433E
:100BC00024BFB3F5001CDCF1FE5C0DD901F0004C34
:100BD0004FEAC0024CEA5070B2F1004F40EB830084
:100BE00008BF20F00100704711F0804F21D113F1B0
:100BF0003872BCBF01F00040704741F480114FEAE9
:100C00005252C2F11802C2F1200C10FA0CF320FA71
:100C100002F018BF40F001004FEAC1234FEAD3238E
:100C200003FA0CFC40EA0C0023FA02F34FEA4303F8
:100C3000CCE77FEA625307D150EA01331EBF4FF081
:100C4000FE4040F44000704701F0004040F0FE409C
:100C500040F40000704700BF53B94AB9002908BFEB
:100C600000281CBF4FF0FF314FF0FF3000F074B987
:100C7000ADF1080C6DE904CE00F006F8DDF804E0F3
:100C8000DDE9022304B070472DE9F047089D0446D2
:100C90008E46002B4DD18A42944669D9B2FA82F22F
:100CA00052B101FA02F3C2F1200120FA01F10CFA6B
:100CB00002FC41EA030E94404FEA1C48210CBEFBA3
:100CC000F8F61FFA8CF708FB16E341EA034306FB2C
:100CD00007F199420AD91CEB030306F1FF3080F0BB
:100CE0001F81994240F21C81023E63445B1AA4B208
:100CF000B3FBF8F008FB103344EA034400FB07F7AA
:100D0000A7420AD91CEB040400F1FF3380F00A81EA
:100D1000A74240F207816444023840EA0640E41BDF
:100D200000261DB1D4400023C5E900433146BDE88B
:100D3000F0878B4209D9002D00F0EF800026C5E92D
:100D4000000130463146BDE8F087B3FA83F6002E45
:100D50004AD18B4202D3824200F2F980841A61EBBD
:100D6000030301209E46002DE0D0C5E9004EDDE7DB
:100D700002B9FFDEB2FA82F2002A40F09280A1EBC3
:100D80000C014FEA1C471FFA8CFE0126200CB1FB18
:100D9000F7F307FB131140EA01410EFB03F0884211
:100DA00008D91CEB010103F1FF3802D2884200F29E
:100DB000CB804346091AA4B2B1FBF7F007FB101130
:100DC00044EA01440EFB00FEA64508D91CEB0404CE
:100DD00000F1FF3102D2A64500F2BB800846A4EB29
:100DE0000E0440EA03409CE7C6F12007B34022FA14
:100DF00007FC4CEA030C20FA07F401FA06F31C4343
:100E0000F9404FEA1C4900FA06F3B1FBF9F8200C4F
:100E10001FFA8CFE09FB181140EA014108FB0EF095
:100E2000884202FA06F20BD91CEB010108F1FF3AE5
:100E300080F08880884240F28580A8F102086144F1
:100E4000091AA4B2B1FBF9F009FB101144EA0141FF
:100E500000FB0EFE8E4508D91CEB010100F1FF34AA
:100E60006CD28E456AD90238614440EA0840A0FB42
:100E70000294A1EB0E01A142C846A64656D353D018
:100E80005DB1B3EB080261EB0E0101FA07F722FA3C
:100E900006F3F1401F43C5E9007100263146BDE865
:100EA000F087C2F12003D8400CFA02FC21FA03F3C8
:100EB000914001434FEA1C471FFA8CFEB3FBF7F049
:100EC00007FB10360B0C43EA064300FB0EF69E426E
:100ED00004FA02F408D91CEB030300F1FF382FD207
:100EE0009E422DD9023863449B1B89B2B3FBF7F6AF
:100EF00007FB163341EA034106FB0EF38B4208D988
:100F00001CEB010106F1FF3816D28B4214D9023EC8
:100F10006144C91A46EA004638E72E46284605E7E6
:100F20000646E3E61846F8E64B45A9D2B9EB0208B7
:100F300064EB0C0E0138A3E74646EAE7204694E747
:100F40004046D1E7D0467BE7023B614432E730467A
:100F500009E76444023842E7704700BF80B588B0B3
:100F600000AF00F06FFB00F083F800F05DF900F0D7
:100F7000DFF800F02FF9354800F03EFC4FF0FF316C
:100F8000324800F0EDFC314800F075FD0346FB836C
:100F9000FB8B07EE903AB8EE677ADFED2D6AC7EE6D
:100FA000267A9FED2C7A67EE877AC7ED067AB869C4
:100FB000FFF7D2FA4FF00002274BFFF76DF9024618
:100FC0000B46104619464FF00002244BFFF746FC33
:100FD00002460B46104619464FF00002204BFFF721
:100FE0005DF902460B4610461946FFF7E5FD03463C
:100FF000BB61FA8B3B1D1B49184602F087FE3B1D67
:101000001846FFF7EDF803469AB2391D4FF0FF334B
:10101000154801F06AFEB869FFF79EFA02460B46D2
:10102000381D124902F072FE3B1D1846FFF7D8F832
:1010300003469AB2391D4FF0FF330B4801F055FEBD
:101040004FF4FA7000F070FB98E700BFF801002041
:1010500000F07F4500404E4500C08740000004403E
:101060000000394018620008400200202862000891
:1010700080B594B000AF07F120033022002118465C
:1010800002F0D2F907F10C0300221A605A609A604C
:10109000DA601A610023BB60234B1B6C224A43F0C9
:1010A00080531364204B1B6C03F08053BB60BB6800
:1010B00000237B601D4B1B6823F440431B4A43F411
:1010C00000431360194B1B6803F440437B607B684B
:1010D00002233B620123FB6210233B630023BB63BB
:1010E00007F12003184601F05BF90346002B01D0FD
:1010F00000F0C2F80F23FB6000233B6100237B61FB
:101100000023BB610023FB6107F10C03002118469B
:1011100001F0BEFB0346002B01D000F0ADF800BF8C
:101120005037BD4680BD00BF00380240007000400F
:1011300080B584B000AF3B4600221A605A609A60C6
:10114000DA60214B214A1A601F4B00225A601E4B65
:1011500000229A601C4B00221A611B4B01221A7656
:10116000194B002283F82020174B0022DA62164B1D
:10117000174A9A62144B0022DA60134B0122DA619B
:10118000114B002283F830200F4B00225A610E4889
:1011900000F0EEFA0346002B01D000F06DF80923B1
:1011A0003B6001237B600023BB603B461946064839
:1011B00000F06EFC0346002B01D000F05DF800BF8C
:1011C0001037BD4680BD00BFF8010020002001405F
:1011D0000100000F80B500AF114B124A1A60104B8E
:1011E0004FF416525A600E4B00229A600C4B0022AC
:1011F000DA600B4B00221A61094B0C225A61084B32
:1012000000229A61064B0022DA61054801F020FDB8
:101210000346002B01D000F02FF800BF80BD00BFB7
:10122000400200200044004080B483B000AF00239F
:101230007B60104B1B6B0F4A43F0010313630D4B94
:101240001B6B03F001037B607B6800233B60094B51
:101250001B6B084A43F002031363064B1B6B03F03E
:1012600002033B603B6800BF0C37BD465DF8047B62
:10127000704700BF0038024080B400AF72B600BFB4
:10128000FEE7000080B483B000AF00237B60104B0A
:101290005B6C0F4A43F4804353640D4B5B6C03F467
:1012A00080437B607B6800233B60094B1B6C084AD2
:1012B00043F080531364064B1B6C03F080533B6078
:1012C0003B6800BF0C37BD465DF8047B704700BF2C
:1012D0000038024080B58AB000AF786007F114038F
:1012E00000221A605A609A60DA601A617B681B6893
:1012F000174A934227D100233B61164B5B6C154A7A
:1013000043F480735364134B5B6C03F480733B6151
:101310003B690023FB600F4B1B6B0E4A43F002033B
:1013200013630C4B1B6B03F00203FB60FB6802238F
:101330007B610323BB610023FB6107F114031946A2
:10134000054800F0A9FE00BF2837BD4680BD00BF9C
:1013500000200140003802400004024080B58AB0FD
:1013600000AF786007F1140300221A605A609A6097
:10137000DA601A617B681B68194A93422BD10023FB
:101380003B61184B1B6C174A43F400331364154B35
:101390001B6C03F400333B613B690023FB60114B82
:1013A0001B6B104A43F0010313630E4B1B6B03F0DE
:1013B0000103FB60FB680C237B610223BB610023FC
:1013C000FB6103233B6207237B6207F11403194689
:1013D000054800F061FE00BF2837BD4680BD00BF54
:1013E00000440040003802400000024080B400AFDA
:1013F000FEE780B400AFFEE780B400AFFEE780B444
:1014000000AFFEE780B400AFFEE780B400AF00BFDE
:10141000BD465DF8047B704780B400AF00BFBD4699
:101420005DF8047B704780B400AF00BFBD465DF837
:10143000047B704780B500AF00F056F900BF80BD57
:1014400080B400AF01231846BD465DF8047B7047A9
:1014500080B582B000AF7860396001F0BBFF034611
:1014600016221A604FF0FF3318460837BD4680BD7C
:1014700080B582B000AF78604FF0FF317868FFF739
:10148000E7FFFEE780B586B000AFF860B9607A602C
:1014900000237B610AE0AFF300800146BB685A1C61
:1014A000BA60CAB21A707B6901337B617A697B6862
:1014B0009A42F0DB7B6818461837BD4680BD80B580
:1014C00086B000AFF860B9607A6000237B6109E004
:1014D000BB685A1CBA601B781846AFF300807B6962
:1014E00001337B617A697B689A42F1DB7B6818463D
:1014F0001837BD4680BD80B483B000AF78604FF030
:10150000FF3318460C37BD465DF8047B704780B446
:1015100083B000AF786039603B684FF400525A6086
:10152000002318460C37BD465DF8047B704780B435
:1015300083B000AF7860012318460C37BD465DF8D4
:10154000047B704780B485B000AFF860B9607A6002
:10155000002318461437BD465DF8047B7047000031
:1015600080B586B000AF7860144A154BD31A7B6102
:101570007B693B61134B1B68002B02D1114B124A54
:101580001A60104B1A687B6813443A699A4207D272
:1015900001F020FF03460C221A604FF0FF3309E0F0
:1015A000084B1B68FB60074B1A687B681344054AAD
:1015B0001360FB6818461837BD4680BD00800120C7
:1015C0000004000084020020A002002080B400AFCC
:1015D000064BD3F88830054A43F47003C2F88830CC
:1015E00000BFBD465DF8047B704700BF00ED00E022
:1015F000DFF834D00D480E490E4A002302E0D458DB
:10160000C4500433C4188C42F9D30B4A0B4C00234A
:1016100001E013600432A242FBD3FFF7D7FF01F0D1
:10162000DFFEFFF79BFC70470080012000000020D8
:10163000DC0100203C660008DC0100209C02002048
:10164000FEE7000080B500AF0E4B1B680D4A43F467
:10165000007313600B4B1B680A4A43F480631360EA
:10166000084B1B68074A43F480731360032000F0A3
:10167000DFFC0F2000F008F8FFF704FE00231846F7
:1016800080BD00BF003C024080B582B000AF7860F2
:10169000124B1A68124B1B7819464FF47A73B3FB3E
:1016A000F1F3B2FBF3F3184600F0E9FC0346002B1C
:1016B00001D001230EE07B680F2B0AD80022796845
:1016C0004FF0FF3000F0BFFC064A7B681360002338
:1016D00000E0012318460837BD4680BD0000002009
:1016E000080000200400002080B400AF064B1B78E7
:1016F0001A46064B1B681344044A136000BFBD46DC
:101700005DF8047B704700BF0800002088020020BD
:1017100080B400AF034B1B681846BD465DF8047BE0
:10172000704700BF8802002080B584B000AF7860A9
:10173000FFF7EEFFB8607B68FB60FB68B3F1FF3F2B
:1017400005D00A4B1B781A46FB681344FB6000BFA8
:10175000FFF7DEFF0246BB68D31AFA689A42F7D851
:1017600000BF00BF1037BD4680BD00BF080000208D
:1017700080B584B000AF78600023FB737B68002BDA
:1017800001D1012333E07B681B6C002B09D1786801
:10179000FFF7A0FD7B6800225A647B68002283F873
:1017A0003C207B681B6C03F01003002B18D17B6876
:1017B0001B6C23F4885323F0020343F002027B687E
:1017C0001A64786800F086FA7B6800225A647B68A5
:1017D0001B6C23F0030343F001027B681A6401E0F1
:1017E0000123FB737B68002283F83C20FB7B1846B7
:1017F0001037BD4680BD000080B485B000AF786072
:101800000023BB607B6893F83C30012B01D102239D
:1018100097E07B68012283F83C207B681B689B680B
:1018200003F00103012B18D07B681B689A687B6862
:101830001B6842F001029A60454B1B68454AA2FBB7
:1018400003239A0C13465B001344BB6002E0BB68A1
:10185000013BBB60BB68002BF9D17B681B689B68B0
:1018600003F00103012B5FD17B681B6C23F4E06361
:1018700023F0010343F480727B681A647B681B6861
:101880005B6803F48063002B07D07B681B6C23F438
:10189000405343F480527B681A647B681B6C03F4EA
:1018A0008053B3F5805F06D17B685B6C23F0060242
:1018B0007B685A6402E07B6800225A647B680022DD
:1018C00083F83C20244BFB607B681B686FF022028E
:1018D0001A60FB685B6803F01F03002B0FD17B6865
:1018E0001B689B6803F04053002B29D17B681B6861
:1018F0009A687B681B6842F080429A6020E07B68AF
:101900001B68164A93421BD17B681B689B6803F0D7
:101910004053002B14D17B681B689A687B681B6856
:1019200042F080429A600BE07B681B6C43F010022F
:101930007B681A647B685B6C43F001027B685A64C5
:10194000002318461437BD465DF8047B704700BF7E
:101950000000002083DE1B430023014000200140E3
:1019600080B584B000AF786039600023FB607B688D
:101970001B689B6803F48063B3F5806F13D17B68A9
:101980001B689B6803F48073B3F5807F0BD17B6881
:101990001B6C43F020027B681A647B68002283F88A
:1019A0003C20012363E0FFF7B3FEF86021E03B68D1
:1019B000B3F1FF3F1DD03B68002B07D0FFF7A8FE17
:1019C0000246FB68D31A3A689A4212D27B681B68B7
:1019D0001B6803F00203022B0BD07B681B6C43F0E7
:1019E00004027B681A647B68002283F83C2003238E
:1019F0003DE07B681B681B6803F00203022BD6D115
:101A00007B681B686FF012021A607B681B6C43F4E2
:101A100000727B681A647B681B689B6803F0405304
:101A2000002B23D17B681B7E002B1FD17B681B689A
:101A3000DB6A03F47003002B06D07B681B689B688D
:101A400003F48063002B11D17B681B6C23F480723C
:101A50007B681A647B681B6C03F48053002B05D1F0
:101A60007B681B6C43F001027B681A6400231846F4
:101A70001037BD4680BD80B483B000AF78607B680E
:101A80001B68DB6C18460C37BD465DF8047B70475D
:101A900080B485B000AF786039600023BB607B689C
:101AA00093F83C30012B01D1022305E17B68012230
:101AB00083F83C203B681B68092B25D97B681B6891
:101AC000D9683B681B689BB21A4613465B001344F7
:101AD0001E3B072202FA03F3DA437B681B680A40C5
:101AE000DA607B681B68D9683B689A683B681B684A
:101AF0009BB2184603465B0003441E3B9A407B683A
:101B00001B680A43DA6022E07B681B6819693B683E
:101B10001B689BB21A4613465B001344072202FA65
:101B200003F3DA437B681B680A401A617B681B6811
:101B300019693B689A683B681B689BB21846034664
:101B40005B0003449A407B681B680A431A613B6848
:101B50005B68062B24D87B681B68596B3B685A6806
:101B600013469B001344053B1F2202FA03F3DA439A
:101B70007B681B680A405A637B681B68596B3B682B
:101B80001B689BB218463B685A6813469B00134477
:101B9000053B00FA03F27B681B680A435A634CE07A
:101BA0003B685B680C2B24D87B681B68196B3B680F
:101BB0005A6813469B001344233B1F2202FA03F387
:101BC000DA437B681B680A401A637B681B68196BE1
:101BD0003B681B689BB218463B685A6813469B00DB
:101BE0001344233B00FA03F27B681B680A431A6321
:101BF00023E07B681B68D96A3B685A6813469B00E0
:101C00001344413B1F2202FA03F3DA437B681B684B
:101C10000A40DA627B681B68D96A3B681B689BB222
:101C200018463B685A6813469B001344413B00FA30
:101C300003F27B681B680A43DA62224BFB607B6815
:101C40001B68214A934209D13B681B68122B05D1BE
:101C5000FB685B6843F48002FB685A607B681B6822
:101C6000194A934223D13B681B68102B03D03B6871
:101C70001B68112B1BD1FB685B6843F40002FB68F7
:101C80005A603B681B68102B11D1104B1B68104A1F
:101C9000A2FB03239A0C13469B0013445B00BB601A
:101CA00002E0BB68013BBB60BB68002BF9D17B68DD
:101CB000002283F83C20002318461437BD465DF807
:101CC000047B7047002301400020014000000020F9
:101CD00083DE1B4380B485B000AF7860794BFB6036
:101CE000FB685B6823F44032FB685A60FB685A6803
:101CF0007B685B681A43FB685A607B681B685A689C
:101D00007B681B6822F480725A607B681B68596884
:101D10007B681B691A027B681B680A435A607B68F0
:101D20001B685A687B681B6822F040725A607B68A7
:101D30001B6859687B689A687B681B680A435A600D
:101D40007B681B689A687B681B6822F400629A6053
:101D50007B681B6899687B68DA687B681B680A4344
:101D60009A607B689B6A584A934222D07B681B68C2
:101D70009A687B681B6822F070629A607B681B68B7
:101D800099687B689A6A7B681B680A439A607B68DB
:101D90001B689A687B681B6822F040529A607B68D7
:101DA0001B6899687B68DA6A7B681B680A439A60DB
:101DB0000FE07B681B689A687B681B6822F0706282
:101DC0009A607B681B689A687B681B6822F04052A7
:101DD0009A607B681B689A687B681B6822F0020225
:101DE0009A607B681B6899687B681B7E5A007B68D9
:101DF0001B680A439A607B6893F82030002B1BD045
:101E00007B681B685A687B681B6842F400625A60F2
:101E10007B681B685A687B681B6822F460425A60C2
:101E20007B681B6859687B685B6A013B5A037B6867
:101E30001B680A435A6007E07B681B685A687B6826
:101E40001B6822F400625A607B681B68DA6A7B6850
:101E50001B6822F47002DA627B681B68D96A7B68AF
:101E6000DB69013B1A057B681B680A43DA627B6801
:101E70001B689A687B681B6822F400729A607B6812
:101E80001B6899687B6893F830305A027B681B683E
:101E90000A439A607B681B689A687B681B6822F417
:101EA00080629A607B681B6899687B685B699A02AC
:101EB0007B681B680A439A6000BF1437BD465DF813
:101EC000047B7047002301400100000F80B485B0FF
:101ED00000AF78607B6803F00703FB600C4BDB68A6
:101EE000BB60BA684FF6FF031340BB60FB681A0281
:101EF000BB68134343F0BF6343F40033BB60044A41
:101F0000BB68D36000BF1437BD465DF8047B7047E3
:101F100000ED00E080B400AF044BDB681B0A03F067
:101F200007031846BD465DF8047B704700ED00E0EE
:101F300080B483B000AF03463960FB7197F9073076
:101F4000002B0ADB3B68DAB20C4997F90730120123
:101F5000D2B20B4483F800230AE03B68DAB20849A6
:101F6000FB7903F00F03043B1201D2B20B441A7643
:101F700000BF0C37BD465DF8047B704700E100E010
:101F800000ED00E080B489B000AFF860B9607A601D
:101F9000FB6803F00703FB61FB69C3F10703042B34
:101FA00028BF0423BB61FB690433062B02D9FB69FC
:101FB000033B00E000237B614FF0FF32BB6902FA74
:101FC00003F3DA43BB681A407B699A404FF0FF3154
:101FD0007B6901FA03F3D9437B680B40134318462E
:101FE0002437BD465DF8047B7047000080B582B0A1
:101FF00000AF78607B68013BB3F1807F01D30123A0
:102000000FE00A4A7B68013B53600F214FF0FF301D
:10201000FFF78EFF054B00229A60044B07221A60DF
:10202000002318460837BD4680BD00BF10E000E021
:1020300080B582B000AF78607868FFF747FF00BFD7
:102040000837BD4680BD80B586B000AF0346B96095
:102050007A60FB7300237B61FFF75CFF78617A682D
:10206000B9687869FFF78EFF024697F90F3011467D
:102070001846FFF75DFF00BF1837BD4680BD80B52D
:1020800082B000AF78607868FFF7B0FF034618466B
:102090000837BD4680BD000080B489B000AF7860CD
:1020A000396000237B6100233B610023BB61002377
:1020B000FB6159E10122FB6902FA03F37B613B6892
:1020C0001B687A6913403B613A697B699A4240F028
:1020D00048813B685B6803F00303012B05D03B6834
:1020E0005B6803F00303022B30D17B689B68BB6104
:1020F000FB695B00032202FA03F3DB43BA69134076
:10210000BB613B68DA68FB695B0002FA03F3BA69FA
:102110001343BB617B68BA699A607B685B68BB618B
:102120000122FB6902FA03F3DB43BA691340BB6186
:102130003B685B681B0903F00102FB6902FA03F3C9
:10214000BA691343BB617B68BA695A603B685B68D4
:1021500003F00303032B17D07B68DB68BB61FB69CB
:102160005B00032202FA03F3DB43BA691340BB614D
:102170003B689A68FB695B0002FA03F3BA69134390
:10218000BB617B68BA69DA603B685B6803F0030394
:10219000022B23D1FB69DA087B68083253F822301E
:1021A000BB61FB6903F007039B000F2202FA03F3F4
:1021B000DB43BA691340BB613B681A69FB6903F0F2
:1021C00007039B0002FA03F3BA691343BB61FB697F
:1021D000DA087B680832B96943F822107B681B680B
:1021E000BB61FB695B00032202FA03F3DB43BA69BC
:1021F0001340BB613B685B6803F00302FB695B0053
:1022000002FA03F3BA691343BB617B68BA691A60C7
:102210003B685B6803F44033002B00F0A28000238E
:10222000FB60574B5B6C564A43F480435364544BFA
:102230005B6C03F48043FB60FB68524AFB699B08BC
:10224000023352F82330BB61FB6903F003039B00A8
:102250000F2202FA03F3DB43BA691340BB617B68C8
:10226000494A934219D07B68484A934213D07B680D
:10227000474A93420DD07B68464A934207D07B6819
:10228000454A934201D1042308E0072306E00323D3
:1022900004E0022302E0012300E00023FA6902F0D7
:1022A000030292009340BA691343BB613549FB694D
:1022B0009B080233BA6941F82320384B9B68BB6105
:1022C0003B69DB43BA691340BB613B685B6803F45D
:1022D0008013002B03D0BA693B691343BB612F4ABB
:1022E000BB6993602D4BDB68BB613B69DB43BA691B
:1022F0001340BB613B685B6803F40013002B03D001
:10230000BA693B691343BB61244ABB69D360234B61
:102310005B68BB613B69DB43BA691340BB613B68E7
:102320005B6803F40033002B03D0BA693B691343A5
:10233000BB611A4ABB695360184B1B68BB613B69A0
:10234000DB43BA691340BB613B685B6803F48033CD
:10235000002B03D0BA693B691343BB610F4ABB69C9
:102360001360FB690133FB61FB690F2B7FF6A2AEA3
:1023700000BF00BF2437BD465DF8047B704700BF37
:1023800000380240003801400000024000040240D2
:1023900000080240000C024000100240003C0140D6
:1023A00080B586B000AF78607B68002B01D1012337
:1023B00067E27B681B6803F00103002B75D0884B34
:1023C0009B6803F00C03042B0CD0854B9B6803F037
:1023D0000C03082B12D1824B5B6803F48003B3F526
:1023E000800F0BD17E4B1B6803F40033002B5BD0B6
:1023F0007B685B68002B57D1012342E27B685B68F6
:10240000B3F5803F06D1764B1B68754A43F48033A1
:1024100013601DE07B685B68B3F5A02F0CD1704B97
:102420001B686F4A43F4802313606D4B1B686C4A32
:1024300043F4803313600BE0694B1B68684A23F454
:1024400080331360664B1B68654A23F48023136056
:102450007B685B68002B13D0FFF75AF9386108E0FE
:10246000FFF756F902463B69D31A642B01D90323BF
:1024700007E25B4B1B6803F40033002BF0D014E041
:10248000FFF746F9386108E0FFF742F902463B6979
:10249000D31A642B01D90323F3E1514B1B6803F4D6
:1024A0000033002BF0D100E000BF7B681B6803F015
:1024B0000203002B63D04A4B9B6803F00C03002BF4
:1024C0000BD0474B9B6803F00C03082B1CD1444BEB
:1024D0005B6803F48003002B16D1414B1B6803F0AB
:1024E0000203002B05D07B68DB68012B01D00123A0
:1024F000C7E13B4B1B6823F0F8027B681B69DB00DC
:10250000374913430B603AE07B68DB68002B20D02F
:10251000344B01221A60FFF7FBF8386108E0FFF73F
:10252000F7F802463B69D31A022B01D90323A8E12D
:102530002B4B1B6803F00203002BF0D0284B1B68C9
:1025400023F0F8027B681B69DB00254913430B600D
:1025500015E0244B00221A60FFF7DAF8386108E032
:10256000FFF7D6F802463B69D31A022B01D90323A1
:1025700087E11B4B1B6803F00203002BF0D17B6843
:102580001B6803F00803002B36D07B685B69002BC7
:1025900016D0154B01221A60FFF7BAF8386108E02F
:1025A000FFF7B6F802463B69D31A022B01D9032381
:1025B00067E10B4B5B6F03F00203002BF0D01BE0D5
:1025C000094B00221A60FFF7A3F838610EE0FFF70D
:1025D0009FF802463B69D31A022B07D9032350E127
:1025E0000038024000004742800E4742884B5B6F34
:1025F00003F00203002BEAD17B681B6803F004039D
:10260000002B00F097800023FB75814B1B6C03F0BF
:102610008053002B0FD10023BB607D4B1B6C7C4A89
:1026200043F0805313647A4B1B6C03F08053BB6000
:10263000BB680123FB75774B1B6803F48073002B89
:1026400018D1744B1B68734A43F480731360FFF70F
:102650005FF8386108E0FFF75BF802463B69D31A80
:10266000022B01D903230CE16A4B1B6803F480732E
:10267000002BF0D07B689B68012B06D1644B1B6F4D
:10268000634A43F0010313671CE07B689B68052BDA
:102690000CD15F4B1B6F5E4A43F0040313675C4B26
:1026A0001B6F5B4A43F0010313670BE0584B1B6F32
:1026B000574A23F001031367554B1B6F544A23F00D
:1026C000040313677B689B68002B15D0FFF720F885
:1026D00038610AE0FFF71CF802463B69D31A41F261
:1026E0008832934201D90323CBE0494B1B6F03F09F
:1026F0000203002BEED014E0FFF70AF838610AE07D
:10270000FFF706F802463B69D31A41F2883293423A
:1027100001D90323B5E03E4B1B6F03F00203002BEE
:10272000EED1FB7D012B05D1394B1B6C384A23F0D0
:10273000805313647B689B69002B00F0A180344BAD
:102740009B6803F00C03082B5CD07B689B69022B11
:1027500041D1314B00221A60FEF7DAFF386108E000
:10276000FEF7D6FF02463B69D31A022B01D9032399
:1027700087E0274B1B6803F00073002BF0D17B68C8
:10278000DA697B681B6A1A437B685B6A9B011A43A0
:102790007B689B6A5B08013B1B041A437B68DB6A0E
:1027A0001B061B4913434B601B4B01221A60FEF7AB
:1027B000AFFF386108E0FEF7ABFF02463B69D31A72
:1027C000022B01D903235CE0114B1B6803F000735B
:1027D000002BF0D054E0104B00221A60FEF798FF57
:1027E000386108E0FEF794FF02463B69D31A022BDA
:1027F00001D9032345E0064B1B6803F00073002B4F
:10280000F0D13DE07B689B69012B07D1012338E0C3
:102810000038024000700040600047421B4B5B687C
:10282000FB607B689B69012B28D0FB6803F4800266
:102830007B68DB699A4221D1FB6803F03F027B6829
:102840001B6A9A421AD1FA6847F6C07313407A6835
:10285000526A9201934211D1FB6803F440327B68C3
:102860009B6A5B08013B1B049A4207D1FB6803F09B
:1028700070627B68DB6A1B069A4201D0012300E08C
:10288000002318461837BD4680BD00BF00380240FF
:1028900080B584B000AF786039607B68002B01D1CF
:1028A0000123CCE0684B1B6803F007033A689A42A7
:1028B0000CD9654B3A68D2B21A70634B1B6803F0AF
:1028C00007033A689A4201D00123B8E07B681B688D
:1028D00003F00203002B20D07B681B6803F0040385
:1028E000002B05D0594B9B68584A43F4E053936042
:1028F0007B681B6803F00803002B05D0534B9B68D3
:10290000524A43F460439360504B9B6823F0F002BB
:102910007B689B684D4913438B607B681B6803F0A1
:102920000103002B44D07B685B68012B07D1474B28
:102930001B6803F40033002B19D101237FE07B686F
:102940005B68022B03D07B685B68032B07D13F4B8E
:102950001B6803F00073002B09D101236FE03B4B90
:102960001B6803F00203002B01D1012367E0374B02
:102970009B6823F003027B685B68344913438B60D8
:10298000FEF7C6FEF8600AE0FEF7C2FE0246FB68EC
:10299000D31A41F28832934201D903234FE02B4BE3
:1029A0009B6803F00C027B685B689B009A42EBD14A
:1029B000254B1B6803F007033A689A420CD2224B5E
:1029C0003A68D2B21A70204B1B6803F007033A68CA
:1029D0009A4201D0012332E07B681B6803F00403B4
:1029E000002B08D0194B9B6823F4E0527B68DB680E
:1029F000164913438B607B681B6803F00803002BA8
:102A000009D0124B9B6823F460427B681B69DB0092
:102A10000E4913438B6000F021F802460B4B9B6874
:102A20001B0903F00F030A49CB5C22FA03F3094A9E
:102A30001360094B1B681846FEF726FE0023184654
:102A40001037BD4680BD00BF003C02400038024048
:102A50003C62000800000020040000202DE9B04F77
:102A600090B000AF00237B630023FB6300233B6334
:102A70000023BB63594B9B6803F00C03082B0DD05C
:102A8000082B00F2A180002B02D0042B03D09BE086
:102A9000534BBB639BE0534BBB6398E04F4B5B686E
:102AA00003F03F037B634D4B5B6803F48003002B13
:102AB00028D04A4B5B689B0900223B627A623B6AE2
:102AC000C3F308000021474B03FB01F2002300FB86
:102AD00003F31344434AA0FB0212FA620A46BA62A5
:102AE000FA6A1344FB627B6B0022BB61FA61D7E98F
:102AF0000623D7E90A01FEF7AFF802460B46134654
:102B0000FB6353E0354B5B689B0900223B617A61B4
:102B10003B69C3F3080A4FF0000B52465B464FF087
:102B200000004FF00001590141EAD2615001024614
:102B30000B46B2EB0A0863EB0B094FF000024FF0B3
:102B400000034FEA891343EA98634FEA8812B2EB15
:102B5000080463EB09054FF000024FF00003EB009F
:102B600043EA5473E20014461D4614EB0A033B602B
:102B700045EB0B037B604FF000024FF00003D7E9F9
:102B8000004529468B02214643EA915321468A0299
:102B9000104619467B6B0022BB60FA60D7E902231E
:102BA000FEF75AF802460B461346FB630B4B5B6875
:102BB0001B0C03F0030301335B003B63FA6B3B6BBD
:102BC000B2FBF3F3BB6302E0054BBB6300BFBB6B1F
:102BD00018464037BD46BDE8B08F00BF0038024000
:102BE0000024F40040787D0180B400AF034B1B68E3
:102BF0001846BD465DF8047B704700BF000000200A
:102C000080B500AFFFF7F0FF0246054B9B689B0ABB
:102C100003F007030349CB5C22FA03F3184680BD97
:102C2000003802404C62000880B500AFFFF7DCFFBF
:102C30000246054B9B685B0B03F007030349CB5C23
:102C400022FA03F3184680BD003802404C620008A7
:102C500080B582B000AF78607B68002B01D1012382
:102C60003FE07B6893F83D30DBB2002B06D17B68F8
:102C7000002283F83C207868FEF770FB7B682422F2
:102C800083F83D207B681B68DA687B681B6822F448
:102C90000052DA60786800F029F97B681B681A69CD
:102CA0007B681B6822F490421A617B681B685A6932
:102CB0007B681B6822F02A025A617B681B68DA680D
:102CC0007B681B6842F40052DA607B6800221A6459
:102CD0007B68202283F83D207B68202283F83E20F9
:102CE000002318460837BD4680BD80B58AB002AFC4
:102CF000F860B9603B601346FB8000237B61FB6892
:102D000093F83D30DBB2202B7CD1BB68002B02D086
:102D1000FB88002B01D1012375E0FB6893F83C3060
:102D2000012B01D102236EE0FB68012283F83C20D5
:102D3000FB6800221A64FB68212283F83D20FEF71D
:102D4000E7FC7861FB68FA889A84FB68FA88DA8481
:102D5000FB689B68B3F5805F08D1FB681B69002B9B
:102D600004D10023FB61BB68BB6103E0BB68FB616E
:102D70000023BB61FB68002283F83C202AE03B680B
:102D800000937B6900228021F86800F040F8034638
:102D9000002B01D0032336E0FB69002B0BD1BB696C
:102DA0001B881A46FB681B68C2F308025A60BB699D
:102DB0000233BB6107E0FB691A78FB681B685A6045
:102DC000FB690133FB61FB68DB8C9BB2013B9AB270
:102DD000FB68DA84FB68DB8C9BB2002BCFD13B68AD
:102DE00000937B6900224021F86800F010F8034648
:102DF000002B01D0032306E0FB68202283F83D204E
:102E0000002300E0022318462037BD4680BD80B570
:102E100090B000AFF860B9603B601346FB7150E0C2
:102E2000BB6CB3F1FF3F4CD0BB6C002B07D0FEF75F
:102E30006FFC02463B68D31ABA6C9A4241D2FB68D7
:102E40001B680C33BB62BB6A53E8003F7B627B6A42
:102E500023F4D073FB63FB681B680C33FA6B7A6353
:102E60003B63396B7A6B41E80023FB62FB6A002B02
:102E7000E5D1FB681B6814337B617B6953E8003F35
:102E80003B613B6923F00103BB63FB681B681433A0
:102E9000BA6B3A62FB61F9693A6A41E80023BB61A7
:102EA000BB69002BE5D1FB68202283F83D20FB683D
:102EB000202283F83E20FB68002283F83C20032375
:102EC0000FE0FB681B681A68BB681340BA689A4237
:102ED0000CBF01230023DBB21A46FB799A429FD034
:102EE000002318464037BD4680BD00002DE9B04F95
:102EF000C0B000AFC7F8F400D7F8F4301B681B6906
:102F000023F44050D7F8F430D968D7F8F4301A6871
:102F100040EA01031361D7F8F4309A68D7F8F43027
:102F20001B691A43D7F8F4305B691A43D7F8F430B9
:102F3000DB691343C7F8F830D7F8F4301B68DB6857
:102F400023F4164121F00C01D7F8F4301A68D7F8B1
:102F5000F8300B43D360D7F8F4301B685B6923F477
:102F60004070D7F8F4309969D7F8F4301A6840EA1D
:102F700001035361D7F8F4301A688F4B9A4205D099
:102F8000D7F8F4301A688D4B9A4204D1FFF74CFE03
:102F9000C7F8FC0003E0FFF733FEC7F8FC00D7F8E2
:102FA000F430DB69B3F5004F40F00C81D7F8FC300A
:102FB0000022C7F8E830C7F8EC20D7E93A452246A6
:102FC0002B469118B9655B41FB65D7E9162321466D
:102FD00012EB0108294643EB01094FF000024FF0C4
:102FE00000034FEAC90343EA58734FEAC802904608
:102FF0009946234618EB0303C7F8E0302B4649EB0C
:103000000303C7F8E430D7F8F4305B680022C7F850
:10301000D830C7F8DC20D7E936120B46DB183B6501
:10302000134642EB03037B65D7E91423D7E9380144
:10303000FDF712FE02460B46614BA3FB02235B0920
:103040001C01D7F8FC300022C7F8D030C7F8D420D4
:10305000D7E9348942464B469118B9645B41FB6419
:10306000D7E91223414612EB010A494643EB010B13
:103070004FF000024FF000034FEACB0343EA5A73CC
:103080004FEACA0292469B4643461AEB0303C7F82F
:10309000C8304B464BEB0303C7F8CC30D7F8F430BD
:1030A0005B680022C7F8C030C7F8C420D7E93012E7
:1030B0000B46DB183B64134642EB03037B64D7E902
:1030C0001023D7E93201FDF7C7FD02460B46114632
:1030D0003B4BA3FB01235B09642202FB03F3CB1AE6
:1030E000DB0003F13202364BA3FB02235B095B00DA
:1030F00003F4F8731C44D7F8FC300022C7F8B8304A
:10310000C7F8BC20D7E92E8942464B469118B963CF
:103110005B41FB63D7E90E234146511839634946A9
:103120004B417B634FF000024FF00003D7E90CAB3B
:103130005946CB00514643EA51735146CA001046E6
:103140001946034642469B18C7F8B0304B460A461C
:1031500042EB0303C7F8B430D7F8F4305B680022C1
:10316000C7F8A830C7F8AC20D7E92A120B46DB18FD
:10317000BB62134642EB0303FB62D7E90A23D7E99C
:103180002C01FDF769FD02460B460D4BA3FB021314
:103190005B09642101FB03F3D31ADB003233084AD5
:1031A000A2FB03235B0903F00702D7F8F4301B6886
:1031B00022449A6005E100BF001001400014014064
:1031C0001F85EB51D7F8FC300022C7F8A030C7F8B4
:1031D000A420D7E9288942464B46911839625B41C1
:1031E0007B62D7E9082341465418494643EB010561
:1031F0004FF000024FF00003EB0043EA5473E2008B
:1032000014461D464346E318C7F898304B4645EB35
:103210000303C7F89C30D7F8F4305B680022C7F886
:103220009030C7F894204FF000024FF00003D7E928
:10323000244529468B00214643EA917321468A00A2
:10324000D7E92601FDF708FD02460B46604BA3FBBC
:1032500002235B091C01D7F8FC300022C7F8883034
:10326000C7F88C20D7E9228942464B469118B961AC
:103270005B41FB61D7E90623414651183961494654
:103280004B417B614FF000024FF00003D7E904ABE4
:103290005946CB00514643EA51735146CA00104685
:1032A0001946034642469B18C7F880304B460A46EB
:1032B00042EB0303C7F88430D7F8F4305B68002290
:1032C000BB67FA674FF000024FF00003D7E91E8991
:1032D00049468B00414643EA917341468A00D7E94B
:1032E0002001FDF7B9FC02460B46394BA3FB021344
:1032F0005B09642101FB03F3D31A1B013233344A07
:10330000A2FB03235B0903F0F0031C44D7F8FC3055
:1033100000223B677A67D7E91C8942464B469118E1
:10332000B9605B41FB60D7E902234146511839601F
:1033300049464B417B604FF000024FF00003D7E954
:1033400000AB5946CB00514643EA51735146CA007F
:1033500010461946034642469B18BB664B460A4632
:1033600042EB0303FB66D7F8F4305B6800223B6650
:103370007A664FF000024FF00003D7E918894946FA
:103380008B00414643EA917341468A00D7E91A010E
:10339000FDF762FC02460B460D4BA3FB02135B09D3
:1033A000642101FB03F3D31A1B013233084AA2FB49
:1033B00003235B0903F00F02D7F8F4301B682244A3
:1033C0009A6000BF07F58077BD46BDE8B08F00BFAB
:1033D0001F85EB51014B1868704700BF0C0000209F
:1033E00070B50D4D0D4C641BA4100026A64209D1EA
:1033F0000B4D0C4C02F004FF641BA4100026A642E7
:1034000005D170BD55F8043B98470136EEE755F8F5
:10341000043B98470136F2E734660008346600083A
:10342000346600083866000802440346934200D11F
:10343000704703F8011BF9E72DE9FF4755EC104BE6
:10344000002D0E4619462B46BBBF05F100431D4615
:1034500000232D230B700D9BDDF830A0914623F047
:103460002008BCBF22461446B8F1460F05D0B8F17B
:10347000450F00D10136022100E0032103AB019387
:1034800002AB009345EC104B5346324600F0ECFC87
:10349000B8F1470F074602D119F0010F22D0B8F159
:1034A000460F07EB060910D13B78302B0AD10022DA
:1034B000002320462946FDF70FFB18B9C6F1010687
:1034C000CAF80060DAF80030994400220023204650
:1034D0002946FDF701FB08B1CDF80C903022039B83
:1034E0004B4507D3039B0E9ADB1B3846136004B091
:1034F000BDE8F087591C03911A70F0E7F7B5034651
:103500000029B8BF494203F8022BB4BF2D222B2259
:10351000092942702ADD0DF10704A4460A27A646B0
:103520000A4691FBF7F607FB16153035632A04F1BE
:10353000FF340EF8015C3146F1DC3031AEF10205AA
:1035400004F8011C441C294661450AD30DF1090207
:10355000A2EB0E02654588BF00221344181A03B07F
:10356000F0BD11F8012B04F8012FEDE730233031C5
:103570008370C170031DF1E72DE9F04F2DED028B33
:103580008DB00C46DDF8608016461F46054601F0FA
:1035900059FAD0F800A05046FCF722FE00230A9307
:1035A00023680593D8F8003094F818B0073323F057
:1035B000070303F10802C8F80020D3E90023C4E997
:1035C0001223D4E9128929F000430793CDF818801B
:1035D00008EE100A9F4BDDE906014FF0FF32FDF7C0
:1035E000ADFA88BBDDE906019A4B4FF0FF32FDF7DB
:1035F00087FA48BB0022002340464946FDF776FA89
:1036000010B12D2384F84330934B9448BBF1470FFE
:1036100094BF9846804603232361059B23F0040250
:1036200022604FF00009009733460BAA2146284636
:1036300000F0D8F9013040F090804FF0FF300DB02D
:10364000BDEC028BBDE8F08F42464B4640464946F2
:10365000FDF774FA40B14B46002BBCBF2D2384F814
:1036600043307F487F4BD1E763680BF0DF0206925F
:103670005A1C3FD106236360059B616843F4806256
:10368000002303930AABCDE901B309AB49EC108BDE
:10369000009322600DF123032846FFF7CDFE069B21
:1036A0000999472B804608D1C81C02DB6368994200
:1036B00041DDABF1020B5FFA8BFBBBF1650F20D84C
:1036C00001395A4604F150000991FFF717FF0A9A91
:1036D0001318012A8146236102DC2268D20701D532
:1036E000013323619DF82330002B9CD02D2384F8D7
:1036F000433098E7069A472ABED1002BBCD101235C
:10370000B9E7BBF1660F18D1002963680BDD2161B1
:1037100013B92268D00702D501330B442361A16598
:103720004FF00009DEE713B92268D20701D5023352
:10373000F4E70123F2E74FF0670B0A9B994205DBA0
:1037400023682161D807EAD54B1CE7E70029D4BFDD
:10375000C1F1020201221344E0E723685A0507D4AD
:103760002369424631462846B84701302CD164E7E8
:10377000BBF1650F40F2E080D4E912010022002382
:10378000FDF7AAF9002834D0374A012331462846EC
:10379000B84701303FF451AFDDE909239A4202DB1B
:1037A0002368D80710D518EE103A524631462846FD
:1037B000B84701303FF441AF4FF0000804F11A0957
:1037C0000A9B013B434509DC23689B0700F1058107
:1037D000E0680B9B9842B8BF184630E701234A4681
:1037E00031462846B84701303FF427AF08F10108B9
:1037F000E6E7099B002B39DC1B4A012331462846AA
:10380000B84701303FF419AFDDE90923134302D172
:103810002368D907D8D518EE103A524631462846C3
:10382000B84701303FF409AF4FF0000904F11A0A1C
:10383000099B5B424B4501DC0A9B92E70123524600
:1038400031462846B84701303FF4F7AE09F1010987
:10385000EEE700BFFFFFEF7F586200085C620008E0
:103860006462000860620008686200080A9AA36D3A
:103870009A42A8BF1A46002A914637DC4FF0000B47
:1038800029EAE97904F11A02A36D0593A3EB090370
:103890005B4533DCDDE909239A423BDB2368DA0729
:1038A00038D40A9B059A09999A1AA3EB0109914504
:1038B000A8BF9146B9F1000F35DC4FF0000829EAA6
:1038C000E97904F11A0ADDE909239B1AA3EB09033C
:1038D00043457FF779AF0123524631462846B84722
:1038E00001303FF4AAAE08F10108ECE71346314677
:1038F00042462846B8470130C0D19EE601233146F2
:1039000028460592B84701303FF497AE059A0BF16F
:10391000010BB9E718EE103A524631462846B8472F
:103920000130BED189E6059A4B46424431462846CD
:10393000B8470130C1D180E60A9A012A01DCDB07D1
:1039400038D50123424631462846B84701303FF476
:1039500074AE18EE103A524631462846B847013048
:103960003FF46BAED4E9120100220023FDF7B4F856
:10397000D8B90A9B08F10102013B31462846B847F5
:1039800001300ED159E60123524631462846B84748
:1039900001303FF452AE08F101080A9B013B434558
:1039A000F1DC4B4604F15002DCE64FF0000804F174
:1039B0001A0AF2E701234246DFE701234A4631466D
:1039C0002846B84701303FF438AE08F10108E368F3
:1039D0000B995B1A4345F0DCFAE64FF0000804F15E
:1039E0001909F4E72DE9F047164699468A680B69EC
:1039F000DDF820809342B8BF1346336091F843202E
:103A000007460C460AB1013333602368990642BF6A
:103A1000336802333360256815F0060506D104F1DA
:103A2000190AE36832689B1AAB4226DC94F84320FB
:103A3000131E226818BF012392062BD404F14302FF
:103A400049463846C04701301ED02368E5683268D1
:103A500003F00603042B08BFAD1AA36822690CBF4C
:103A600025EAE57500259342C4BF9B1AED18002690
:103A70001A34B5421AD1002008E0012352464946C3
:103A80003846C047013003D14FF0FF30BDE8F08722
:103A90000135C6E7E1185A1C302081F84300224462
:103AA00094F8451082F843100233C7E701232246F9
:103AB00049463846C0470130E6D00136D9E7000014
:103AC0002DE9FF470F7E0C9D782F914680460C46CE
:103AD0009A4601F1430207D8622F0AD8002F00F05E
:103AE000D880582F00F0A38004F1420584F842707A
:103AF0003AE0A7F16303152BF6D801A151F823F0A2
:103B0000593B00086D3B0008E93A0008E93A000813
:103B1000E93A0008E93A00086D3B0008E93A000874
:103B2000E93A0008E93A0008E93A0008793C000857
:103B30009D3B00085B3C0008E93A0008E93A0008B0
:103B40009B3C0008E93A00089D3B0008E93A000860
:103B5000E93A0008633C00082B681A1D1B682A60BC
:103B600004F1420584F842300123A3E0206829686B
:103B7000060601F104030AD50E682B60002E03DA55
:103B80002D23764284F843305E480A2319E00E68FC
:103B90002B6010F0400F18BF36B2EFE72B6820689B
:103BA000191D2960010601D51E6802E04606FBD5F5
:103BB0001E8854486F2F0CBF08230A23002184F865
:103BC00043106568A560002DA2BF216821F00401A3
:103BD00021600EB9002D4DD01546B6FBF3F103FB65
:103BE0001167C75D05F8017D3746BB420E46F4D923
:103BF000082B0BD12368DE0708D523696168994239
:103C0000DEBF302305F8013C05F1FF35521B226170
:103C1000CDF800A04B4603AA21464046FFF7E2FE3E
:103C200001304CD14FF0FF3004B0BDE8F08735488B
:103C300081F845702968236851F8046B29601D06D6
:103C400014D5DF0744BF43F0200323601EB9236867
:103C500023F0200323601023B0E7236843F0200300
:103C600023607823284884F84530E3E7590648BFA5
:103C7000B6B2E6E71546BBE72B6826686169181DF2
:103C8000286035061B6801D5196002E07006FBD577
:103C90001980002323611546BAE72B681A1D2A6094
:103CA0001D68626800212846FCF7A2FA08B1401B93
:103CB000606063682361002384F84330A8E72369C8
:103CC0002A4649464046D0470130ABD023689B077F
:103CD00013D4E068039B9842B8BF1846A4E70123B9
:103CE000324649464046D04701309BD00135E36813
:103CF00003995B1AAB42F2DCEBE7002504F11906ED
:103D0000F5E700BF6A6200087B6200080EB400B5E8
:103D10009CB01DAB029006906FF0004109480791DE
:103D20000491094953F8042B05910068019302A9F5
:103D300001F078FB029B00221A701CB05DF804EBC6
:103D400003B070470C0000200802FFFF2DE9F74F79
:103D500003690C69A3420746C0F28180013C01F16E
:103D6000140800F1140505EB8403019358F824307E
:103D700055F8242001339A424FEA840B08EB84095A
:103D8000B2FBF3F631D34FF0000E4046AC46F2469C
:103D900050F8042B93B206FB03E34FEA134E9BB299
:103DA000AAEB0303DCF800A0120C13FA8AF306FB5B
:103DB00002E20093009B4FEA124E92B2C2EB1A420B
:103DC00002EB2342BDF80030814543EA02434CF840
:103DD000043B4FEA224ADBD255F80B302BB9019B4A
:103DE000043B9D421A462ED33C61384601F0C6F88A
:103DF000002824DB013628464FF0000C58F8042B2D
:103E0000D0F800E093B2ACEB0303120C13FA8EF37C
:103E1000C2EB1E4202EB23429BB243EA0243C1457E
:103E200040F8043B4FEA224CE8D255F8242005EB39
:103E3000840322B9043B9D421A460AD33C613046B2
:103E400003B0BDE8F08F1268043B002ACCD1013CDE
:103E5000C7E71268043B002AF0D1013CEBE70020E1
:103E6000EEE70000000000002DE9F04F2DED048B7F
:103E700057EC106B93B0456ADDF88080069110EE28
:103E800010AA044609920C93BB4675B9102000F0A5
:103E9000DDFD0246606220B9A74BEA21A74801F088
:103EA000D1FBC0E901550560C560636A196851B16D
:103EB0005A684A60012393408B60204600F01CFE44
:103EC000636A00221A603B1EAABF002323F0004B46
:103ED000C8F800309A4BBCBF0122C8F8002033EA72
:103EE0000B031BD10C9A42F20F731360CBF3130335
:103EF000334300F09285219B63B9924B22E0924BB1
:103F000001930833219A1360019813B0BDEC048B20
:103F1000BDE8F08F8B4B01930333F3E700220023BE
:103F200050465946FCF7D8FD4BEC19AB804658B1CA
:103F30000C9A01231360219B002B00F06B858348B2
:103F40001860431E0193DFE74BEC10AB10AA11A9D8
:103F5000204601F0B9F8CBF30A5508EE100A002DFF
:103F600000F0848019EE903AC3F3130343F07F57B7
:103F7000564647F44017A5F2FF35CDF83880744B0C
:103F8000002230463946FCF787F965A3D3E90023C0
:103F9000FCF73AFB64A3D3E90023FCF77FF906465C
:103FA00028460F46FCF7C6FA61A3D3E90023FCF7C5
:103FB0002BFB02460B4630463946FCF76FF90646A6
:103FC0000F46FCF7D1FD0022009000233046394611
:103FD000FCF78CFD50B10098FCF7ACFA32463B463A
:103FE000FCF77AFD10B9009B013B0093009B162B58
:103FF0005AD8009A574B03EBC203D3E9002351EC84
:10400000190BFCF773FD002850D0009B013B009377
:1040100000230B93109B5D1B6B1E059345BFC5F1E1
:1040200001030493002300234CBF05930493009BDA
:10403000002B3DDB059B009A0A9213440593002355
:104040000793069B092B00F28980052BC4BF043B14
:104050000693069BA3F10203CCBF00250125032B89
:1040600000F28780DFE803F02D3A3859DDE910537C
:104070001D4405F23243202BC1BFC3F1400305F2BA
:1040800012400BFA03F326FA00F0DABFC3F1200363
:1040900006FA03F01843FCF73DFA01230646A1F1A6
:1040A000F877013D0E936AE70123B2E70B90B1E781
:1040B000049B009A9B1A04935342079300230A938C
:1040C000BFE700230893099B002B55DC0123CDE9B2
:1040D00002331A4609920CE00123F3E70023099A00
:1040E0000893009B134402930133012B0393B8BF41
:1040F0000123606A00224260042202F114069E42FB
:1041000041683DD9204600F0B7FC019000283BD122
:10411000114B02464FF4D571C0E60123DFE700BF23
:1041200061436F63A787D23FB3C8608B288AC63FBD
:10413000FB799F501344D33F99620008B062000896
:104140000000F07F956200088C6200086962000838
:104150000000F83FA06300080B630008012500235E
:10416000069308954FF0FF33CDE902330022122366
:10417000B0E701230893F5E7099BCDE90233B8E7DF
:10418000013141605200B8E7636A019A1A60039BEB
:104190000E2B00F29D80002D00F09A80009B002BDA
:1041A00032DDB74A03F00F0302EBC303D3E9008902
:1041B000009BD8054FEA231716D5B24B51EC190BCB
:1041C000D3E90823FCF74AFB07F00F0782468B462A
:1041D0000325AC4E57B942464B4650465946FCF76C
:1041E0003DFB82468B4628E00225F2E7F90708D519
:1041F00040464946D6E90023FCF706FA01358046D9
:1042000089467F100836E5E700F09B80009B9D4FB4
:104210005E429B4B06F00F0203EBC203D3E900237F
:1042200051EC190BFCF7F0F9361182468B4600234E
:104230000225002E7AD1002BD3D10B9B002B00F04E
:104240008280914B002250465946FCF74FFC0028D3
:1042500079D0039B002B76D0029B002B36DD009B90
:10426000504659465F1E0022884BFCF7CDF9029E4E
:1042700082468B4601352846FCF75CF952465B4680
:10428000FCF7C2F9824B0022FCF708F8D046D94669
:104290008246A1F1507B002E58D17E4B0022404631
:1042A0004946FBF7F9FF52465B4680468946FCF7D4
:1042B0003BFC002840F0958252460BF100434046FB
:1042C0004946FCF713FC002840F089825BEC19ABEF
:1042D000119B002BC0F24881009A0E2A00F3448102
:1042E000674B03EBC203D3E90089099B002B80F2E3
:1042F000D580039B002B00F3D18040F06F82654B8B
:10430000002240464946FCF77FF952465B46FCF7DF
:1043100001FC039E3746002840F04582019D312371
:1043200005F8013B009B0133009340E2F20705D5FD
:10433000D7E90023FCF768F9013501237610083727
:1043400077E7022579E7009F039E94E701994C4B9C
:1043500031440D91089903EBC60353E90223002968
:1043600043D04D490020FCF779FA52465B46FBF7F3
:1043700093FF019D82468B4649464046FCF7F4FB7D
:104380000646FCF7D7F802460B4640464946FBF77F
:1043900083FF303605F8016B52465B4680468946FE
:1043A000FCF7A4FB002863D142464B463649002067
:1043B000FBF772FF52465B46FCF798FB002840F083
:1043C000B5800D9B9D4281D0304B0022504659460E
:1043D000FCF71AF92D4B82468B464046494600228F
:1043E000FCF712F980468946C6E750465946FCF765
:1043F0000BF90D9B019D0F9382468B464946404623
:10440000FCF7B2FB0646FCF795F8303602460B4641
:1044100040464946FBF740FF05F8016B0D9B9D4266
:10442000804689464FF0000224D11B4B5046594626
:10443000FBF734FF02460B4640464946FCF774FB47
:10444000002873D152465B4613490020FBF724FF36
:1044500002460B4640464946FCF748FB00283FF41D
:1044600035AF0F9D6B1E0F9315F8013C302BF8D024
:10447000009749E0054BFCF7C7F880468946BDE741
:10448000A0630008786300080000F03F00002440AB
:1044900000001C40000014400000E03F019D564613
:1044A0005F4642464B4630463946FCF7D7F9FCF7A3
:1044B0005BFB8246FCF73EF842464B46FCF7A4F80D
:1044C00002460B46304639460AF13006FBF7E4FE59
:1044D00005F8016B019E039FAE1BB74202460B46D7
:1044E00035D1FBF7DBFE42464B4606460F46FCF74E
:1044F0001BFBD0B942464B4630463946FCF7ECFA36
:1045000010B11AF0010F10D1204618EE101A00F069
:10451000F3FA002300982B700C9B01301860219B4C
:10452000002B3FF4F1AC1D60EEE4009F2B461D46CE
:1045300013F8012D392A06D1019A9A42F7D101992F
:10454000302201370A701A7801321A7090E7A64BB0
:104550000022FCF759F80022002306460F46FCF71C
:10456000BBFA00289DD0CFE7089A002A00F0D78038
:10457000069A012A00F3BA800E9A002A00F0B2804F
:1045800003F23343079E049D049A1A440492059A49
:1045900001211A442046059200F066FB0746002DD3
:1045A0000CDD059B002B09DDAB42049AA8BF2B460E
:1045B000D21A0492059AED1AD31A0593079B1BB3DE
:1045C000089B002B00F0AF80002E13DD39463246E9
:1045D000204600F009FC18EE102A01460746204646
:1045E00000F058FB18EE101A8046204600F084FABE
:1045F00008EE108A079B9A1B06D018EE101A204668
:1046000000F0F2FB08EE100A0121204600F02CFB1E
:104610000A9B002B064640F388801A460146204636
:1046200000F0E2FB069B012B064640F381804FF031
:104630000008336906EB8303186900F0C5FAC0F17E
:104640002000059B184410F01F0000F09280C0F17C
:104650002003042B40F38A80C0F11C00049B034418
:104660000493059B034405440593049B002B07DD3D
:1046700018EE101A1A46204600F010FC08EE100A38
:10468000059B002B05DD31461A46204600F006FC4E
:1046900006460B9B002B6ED018EE100A314600F038
:1046A0006DFC002867DA009B013B18EE101A00939E
:1046B0000A220023204600F041FA089B08EE100A67
:1046C000002B00F0B181002339460A22204600F079
:1046D00035FA029B002B074600F38E80069B022BC7
:1046E00051DC89E0109BC3F136034BE7039B5E1E50
:1046F000079BB342BFBF079B0796F21A0A9BB6BF40
:104700009B189E1B0A93039BB8BF0026002BB7BFC4
:10471000DDE90323DDE903359D1A002334E7079E15
:10472000049D089F3BE7079A67E7069B012B18DC6F
:10473000BAF1000F15D1CBF3130393B92BF000435B
:104740001B0D1B0583B1049B01330493059B0133AF
:1047500005934FF001080A9B002B7FF46AAF0120FC
:104760006FE74FF00008F6E79846F4E73FF47DAFB7
:1047700018461C3072E7039B002B37DC069B022B8C
:1047800034DD039B0293029B6BB931460522204620
:1047900000F0D4F90146064618EE100A00F0EEFBD0
:1047A00000283FF7BBAD099B019DDB4300934FF011
:1047B00000083146204600F09FF9002F3FF4A4AED8
:1047C000B8F1000F05D0B84503D04146204600F0AF
:1047D00093F93946204600F08FF995E600263746D2
:1047E000E1E70097374699E500002440089B002B3D
:1047F00000F0CA80039B0293002D05DD39462A464E
:10480000204600F04BFB0746B8F1000F5BD07968FB
:10481000204600F031F9054628B9874B024640F2A0
:10482000EA21FFF73BBB3A690232920007F10C0123
:104830000C3000F013F901222946204600F02EFB2F
:10484000019B03F10109DDE90123134405930AF0FB
:104850000103B84604930746314618EE100AFFF7E5
:1048600075FA4146029000F1300A18EE100A00F085
:1048700085FB3A4603903146204600F09BFBC26818
:1048800009F1FF3B054602BB014618EE100A00F095
:1048900075FB024629462046079200F02DF9DDE916
:1048A000063243EA0201049B0B434D460FD1BAF195
:1048B000390F2AD0039B002B02DD029B03F1310A42
:1048C0008BF800A075E73846BAE70122E2E7039BC0
:1048D000002B04DB06990B4304990B4322D1002AD9
:1048E000EEDD18EE101A0122204600F0D7FA31460C
:1048F00008EE100A00F042FB002803DCE0D11AF0B9
:10490000010FDDD0BAF1390FD7D139238BF8003040
:104910002B461D46013B15F8012C392A71D0013276
:104920001A7046E7002A07DDBAF1390FEDD00AF117
:1049300001038BF800303CE7059B09F801AC994571
:1049400047D018EE101A00230A22204600F0F6F88D
:10495000B84508EE100A4FF000034FF00A02414636
:10496000204606D100F0EAF88046074609F1010921
:1049700072E700F0E3F83946804600230A22204619
:1049800000F0DCF80746F1E7039B0293019D18EE67
:10499000100A3146FFF7DAF900F1300A019B05F8F9
:1049A00001ABEA1A029B934209DD18EE101A0023AC
:1049B0000A22204600F0C2F808EE100AE7E7029B40
:1049C000002BC8BF1D46019BD8BF01251D444FF0D9
:1049D000000818EE101A0122204600F05FFA314656
:1049E00008EE100A00F0CAFA002891DC02D11AF091
:1049F000010F8DD12B461D4613F8012D302AFAD018
:104A0000D7E6019A9A4284D1009B01330093312367
:104A10001370CEE6094BFFF795BA219B002B7FF46C
:104A20006EAA074BFFF78EBA029B002BAEDC069BEB
:104A3000022B3FF7A8AEA9E70B63000868620008E5
:104A40008C6200080048704760010020024B01465C
:104A5000186800F017BC00BF0C0000200A44914207
:104A600000F1FF3300D1704710B511F8014B03F886
:104A7000014F9142F9D110BD70B5466A04460D460A
:104A800076B91020FFF7E2FF0246606220B9184BAA
:104A90001848662100F0D6FDC0E901660660C660D0
:104AA000666AF36883B1636ADB6853F82500B8B9B6
:104AB000012101FA05F6721D9200204600F060FB0C
:104AC00060B1C0E901560EE021220421204600F029
:104AD00057FB636AF060DB68002BE4D1002070BDF7
:104AE000026843F825200023C0E90333F7E700BF3D
:104AF000996200081C63000870B5466A05460C46BA
:104B000076B91020FFF7A2FF0246686220B9094B70
:104B100009488A2100F096FDC0E901660660C6607A
:104B20003CB16B6A6268DB6853F82210216043F87D
:104B3000224070BD996200081C6300082DE9F04115
:104B40000D6907460C461E4601F1140C0020DCF8E6
:104B5000003099B202FB01611E0C0B0C02FB063304
:104B600089B2013001EB034185424CF8041B4FEA46
:104B70001346ECDC0EB3A368AB4219DC616838461F
:104B80000131FFF779FF804628B902460C4B0D48EA
:104B9000B52100F057FD2269023204F10C019200A8
:104BA0000C30FFF75BFF21463846FFF7A5FF444670
:104BB00004EB850301355E6125612046BDE8F08187
:104BC0000B6300081C630008030C1B04D3B900042A
:104BD000102310F07F4F04BF0002083310F0704F15
:104BE00004BF0001043310F0404F04BF80000233C3
:104BF000002805DB10F0804F03F1010308BF2023DC
:104C0000184670470023E4E7036813F007020146E3
:104C10000BD0DA0723D4980749BF5B089B08012013
:104C20000B605CBF0B600220704798B2A8B91B0CE8
:104C30001020DAB20AB908301B0A1A0704BF1B0990
:104C400004309A0704BF9B080230DA0703D45B08DC
:104C500000F1010005D00B6070471046E9E7002025
:104C6000704720207047000010B50C460121FFF767
:104C700003FF024628B9054B05484FF4A07100F028
:104C8000E1FC01234461036110BD00BF0B63000818
:104C90001C6300082DE9F04F91460A69D9F81030DD
:104CA0009A42B8BF0B460C46BCBF4C469946276992
:104CB000D9F810A0A368616807EB0A06B34285B073
:104CC000B8BF0131FFF7D8FE30B90246444B454822
:104CD00040F25D1100F0B6FC00F1140505EB86080A
:104CE0002B460022434521D304F1140303EB87072D
:104CF00009F1140303EB8A0202923A1B153A22F0DF
:104D00000302043204F115018F4238BF04220192DC
:104D1000029A03939A420CD8002E03DD58F8043D02
:104D2000002B5AD0066105B0BDE8F08F43F8042B84
:104D3000D8E7B3F800A0BAF1000F24D004F1140EA4
:104D4000A9464FF0000C5EF8042BD9F800101FFAAA
:104D500082FB89B20AFB0B114FEA124BD9F80020F3
:104D600061444FEA124C0AFB0BC202EB114289B2BA
:104D700041EA0241774549F8041B4FEA124CE2D858
:104D8000019A45F802C0039AB2F802900433B9F1CF
:104D9000000F20D0296804F1140CAE464FF0000A31
:104DA000BCF800B0BEF8022009FB0B22924489B285
:104DB00041EA0A414EF8041B5CF8042BBEF80010CF
:104DC000120C09FB021101EB1A4167454FEA114A27
:104DD000E6D8019AA95004359AE7013E9CE700BF46
:104DE0000B6300081C6300082DE9F843154612F018
:104DF000030206460F4607D0254C013A002354F81B
:104E00002220FFF79BFE0746AD103DD0746A7CB9A7
:104E10001020FFF71BFE0246706228B91D4B1E488A
:104E20004FF4D77100F00EFCC0E901440460C46087
:104E3000D6F82480D8F808404CB940F271213046A9
:104E4000FFF712FF0023C8F80800044603604FF084
:104E50000009EB070AD5394622463046FFF71AFF0C
:104E6000394680463046FFF747FE47466D100BD067
:104E7000206838B9224621463046FFF70BFF2060F4
:104E8000C0F800900446E4E73846BDE8F88300BF68
:104E900068640008996200081C6300082DE9F04767
:104EA0000C464968236903EB6218A36807469146DC
:104EB0004FEA621A08F10106B3420BDB3846FFF7EE
:104EC000DBFD054648B902462A4B2B4840F2D91172
:104ED00000F0B8FB01315B00EEE7002300F11401A4
:104EE00000F110021846534537DB20692AEAEA7AB6
:104EF00004F1140319F01F0901EB8A0103EB800090
:104F00002FD0C9F1200E8A464FF0000C1A6802FA21
:104F100009F242EA0C024AF8042B53F8042B984297
:104F200022FA0EFCF2D8031B153B23F003030433D3
:104F300004F11502904238BF042341F803C0BCF1CC
:104F4000000F01D008F10206013E38462E612146CD
:104F5000FFF7D2FD2846BDE8F08742F8040F013381
:104F6000C1E7043953F8042B41F8042F9842F9D8CB
:104F7000EAE700BF0B6300081C63000830B5026954
:104F80000C69121B0ED100F11403143103EB8400E1
:104F900001EB840150F8045D51F8044DA54203D0A3
:104FA00005D30122104630BD8342F3D3FAE74FF018
:104FB000FF32F7E72DE9F84F0C460646114620462A
:104FC0009046FFF7DBFF051E10D129463046FFF75C
:104FD00053FD30B93A4B024640F23221394800F0D5
:104FE00031FB0123C0E90435BDE8F88FA4BF434677
:104FF000A0463046D8F80410A6BF1C46002501255F
:10500000FFF73AFD20B92E4B02464FF41071E5E749
:10501000D8F810702669C56004F1140908F1140568
:1050200000F1140E05EB870C09EB860608F110025F
:10503000F246002159F8043B52F804BF1FFA83F8E6
:1050400011FA8BF11B0CA1EB0808C3EB1B4303EB1C
:1050500028431FFA88F819144E4548EA03434AF8D2
:10506000043BE7D8331B153B23F00303043315340B
:10507000A64238BF04231D4473449E462E4666450F
:105080000ED30CF10302521B22F00302033DAC4588
:1050900038BF00221A4452F8043D7BB10761A3E7F0
:1050A00056F8048B11FA88F2141404EB184492B2E7
:1050B00042EA04424EF8042B2114E0E7013FEAE7FC
:1050C0000B6300081C6300082DE9F74389460121A2
:1050D00057EC106B9046FFF7CFFC044630B9024600
:1050E000254B264840F20A3100F0ACFAC7F30A55C6
:1050F000C7F3130335BB002E019328D068460096F2
:10510000FFF782FD009900B3019AC0F1200302FA73
:1051100003F30B43C24063610192019BA361002B27
:1051200014BF022201222261D5B1A5F23345054404
:10513000C9F80050C0F13500C8F80000204603B09F
:10514000BDE8F08343F48013D5E76161E5E701A88A
:10515000FFF75AFD019B6361012222612030E3E7E2
:1051600004EB8203A0F23240C9F800001869FFF78F
:105170002BFDC0EB4210DFE70B6300081C63000847
:1051800037B5A1FB02244CB91146019200F07AF820
:10519000019A054630B9284603B030BD0C220260A2
:1051A0000025F8E72146FEF73FF9F4E737B5002977
:1051B00044D051F8043C0190002BA1F10404B8BF85
:1051C000E41800F09BFA1E4A0198136833B9636033
:1051D000146003B0BDE8304000F096BAA34208D98D
:1051E000256861198B4201BF19685B684919216004
:1051F000EDE71A465B680BB1A342FAD9116855185E
:10520000A5420BD1246821445418A3421160E0D177
:105210001C685B68536021441160DAE702D90C23F3
:105220000360D6E7256861198B4204BF19685B6883
:10523000636004BF491921605460CAE703B030BD00
:105240008C02002070B50E4E0C463168054611B92F
:1052500000F0E8F930602146284600F0E3F9431CED
:105260000AD0C41C24F00304A04207D0211A284607
:1052700000F0D8F9013001D14FF0FF34204670BD65
:10528000900200202DE9F041CD1C25F003050835E2
:105290000C2D38BF0C25002D074601DBA94205D98E
:1052A0000C233B6000263046BDE8F0812E4E00F016
:1052B00025FA33681C4634BB29463846FFF7C2FF3F
:1052C000431C04464DD134682646002E40D1236845
:1052D0003146384604EB030800F0A4F980453AD182
:1052E000216803356D1A25F0030508350C2D38BFEC
:1052F0000C2529463846FFF7A5FF01302BD023683F
:105300002B4423600EE02268521B1ED40B2A16D9B0
:105310006119A342256018BF5960636808BF3160F6
:1053200062514B60384604F10B0600F0EDF926F0AF
:105330000706231DF21AB6D09B1BA350B3E7626881
:10534000A3420CBF32605A60ECE723466468B2E7C0
:1053500034467668B9E70C233B60384600F0D4F950
:10536000A1E72560DEE700BF8C0200202DE9F047B1
:105370008E689E4282460C4690461F4638D88A89DF
:1053800012F4906F32D025680969A5EB01096569AF
:1053900005EB450505EBD57501334B446D109D427A
:1053A00038BF1D46530531D52946FFF76BFF06462A
:1053B00050B90C23CAF80030A38943F04003A381FD
:1053C0004FF0FF30BDE8F08721694A46FFF746FB02
:1053D000A38923F4906343F08003A3812661656170
:1053E0004E44A5EB09052660A5603E46BE4200D9A5
:1053F0003E4620683246414600F066F9A3689B1B92
:10540000A3602368334423600020DBE72A4600F0D2
:1054100081F906460028E1D121695046FFF7C6FE12
:10542000C7E700002DE9F04F98468B891B069DB019
:1054300007460D4614460ED50B6963B94021FFF7A8
:1054400021FF2860286120B90C233B604FF0FF301A
:10545000D1E040236B610023099320238DF829308C
:10546000CDF80C803023DFF8A8818DF82A304FF07A
:10547000010923469A4613F8012B0AB1252AF9D1CE
:10548000BAEB040B0BD05B46224629463846FFF7A1
:105490006DFF013000F0AA80099A5A4409929AF8E7
:1054A0000030002B00F0A28000234FF0FF32CDE946
:1054B00005230AF1010A049307938DF853301A93D8
:1054C0005446052214F8011B5148FAF791FE049A3C
:1054D000D8B9D00644BF20238DF85330110744BFFC
:1054E0002B238DF853309AF800302A2B15D0079AC9
:1054F000544600204FF00A0C214611F8013B303B86
:10550000092B4ED9B0B1079214E0A0EB080309FAB9
:1055100003F313430493A246D2E7039B191D1B68B0
:105520000391002BBBBF5B4242F00202079307933B
:10553000B8BF049223782E2B0CD163782A2B35D157
:10554000039B1A1D1B680392002BB8BF4FF0FF335B
:1055500002340593DFF8C8A0217803225046FAF7F9
:1055600047FE40B14023A0EB0A0003FA00F0049B81
:1055700003430134049314F8011B26488DF82810C6
:105580000622FAF735FE002838D0234B1BBB039BBD
:10559000073323F0070308330393099B334409932C
:1055A00067E70CFB02320C460120A5E7002301341B
:1055B000059319464FF00A0C204610F8012B303A9B
:1055C000092A03D9002BC5D00591C3E70CFB0121A3
:1055D00004460123F0E703AB00932A460F4B04A9CE
:1055E0003846FDF7C9FF421C0646D6D1AB895B069B
:1055F0003FF52CAF09981DB0BDE8F08F03AB0093C9
:105600002A46064B04A93846FEF75AFAEBE700BFD4
:10561000746400087E640008793500086D53000842
:105620007A64000838B5064D0023044608462B600E
:10563000FBF796FF431C02D12B6803B1236038BDF2
:10564000940200201FB514461A46094B1B680546F4
:10565000D8684CB1074B0091CDE9013406492B467F
:1056600000F00EF800F0ACFA044B1C46F3E700BF64
:105670000C0000208564000892640008C0640008E3
:105680000EB403B5014603AB054853F8042B00687C
:10569000019300F097F802B05DF804EB03B0704797
:1056A0000C00002082B001B901A942B14BB11378BE
:1056B0000B601278101E18BF012002B07047104610
:1056C000FBE76FF00100F8E7884210B501EB020438
:1056D00002D98442234607D8431EA14208D011F8BC
:1056E000012B03F8012FF8E7024401468A4200D15A
:1056F00010BD13F8014D02F8014DF7E7014800F025
:105700001FBC00BF98020020014800F01ABC00BF77
:10571000980200202DE9F041804614460E4621B93A
:10572000BDE8F0411146FFF7ADBD2AB9FFF73EFDD8
:1057300025462846BDE8F08100F06AFC8442074611
:1057400002D8B4EB500F12D821464046FFF79AFD1D
:1057500005460028EDD0BC422246314628BF3A46D5
:10576000FFF77CF931464046FFF720FDE1E735467B
:10577000DFE79368013B002B10B4936008DA94696B
:10578000A34201DB0A2903D15DF8044B00F04AB9BA
:105790001368581C1060197008465DF8044B704778
:1057A000F8B506460F461446D518AC4201D1002084
:1057B00007E014F8011B3A463046FFF7DAFF431CB6
:1057C000F3D1F8BD2DE9F04F0D469DB01446984633
:1057D000064618B183690BB900F014FB894B9D4252
:1057E0001BD175686B6ED90705D4AB899A0502D4B5
:1057F000A86D00F0A5FBAB891B0701D52B69EBB9A0
:105800002946304600F06EF9C0B16B6EDC070ED54C
:105810004FF0FF301DB0BDE8F08F7B4B9D4201D1B2
:10582000B568DFE7794B9D4208BFF568DAE7AB89D9
:105830009805EDD4A86D00F084FBE9E700230993F7
:1058400020238DF82930CDF80C803023DFF8C0817B
:105850008DF82A304FF0010923469A4613F8012BA0
:105860000AB1252AF9D1BAEB040B0BD05B462246CC
:1058700029463046FFF794FF013000F0AA80099ACC
:105880005A4409929AF80030002B00F0A2800023BD
:105890004FF0FF32CDE905230AF1010A0493079383
:1058A0008DF853301A935446052214F8011B5848BA
:1058B000FAF79EFC049AD8B9D10644BF20238DF88C
:1058C0005330130744BF2B238DF853309AF8003020
:1058D0002A2B15D0079A544600204FF00A0C214677
:1058E00011F8013B303B092B4ED9B0B1079214E0BF
:1058F000A0EB080309FA03F313430493A246D2E78B
:10590000039B191D1B680391002BBBBF5B4242F038
:10591000020207930793B8BF049223782E2B0CD171
:1059200063782A2B35D1039B1A1D1B680392002B29
:10593000B8BF4FF0FF3302340593DFF8E4A02178BD
:1059400003225046FAF754FC40B14023A0EB0A0072
:1059500003FA00F0049B03430134049314F8011B81
:105960002C488DF828100622FAF742FC00283FD078
:10597000294B1BBB039B073323F007030833039317
:10598000099B3B44099367E70CFB02320C4601205C
:10599000A5E700230134059319464FF00A0C204671
:1059A00010F8012B303A092A03D9002BC5D00591F4
:1059B000C3E70CFB012104460123F0E703AB00938E
:1059C0002A46164B04A93046FDF7D6FD0746781C3B
:1059D000D6D16B6ED90705D4AB899A0502D4A86DD0
:1059E00000F0AFFAAB895B063FF512AF099811E7FB
:1059F00003AB00932A46094B04A93046FEF760F832
:105A0000E4E700BFEC6500080C660008CC65000800
:105A1000746400087E64000879350008A157000806
:105A20007A640008F8B50E461446054618B1836935
:105A30000BB900F0E7F9214B9C422BD16C68A369AC
:105A4000A360A3891A072FD523696BB32369206844
:105A5000C01A6369F6B28342374604DC2146284601
:105A600000F03CF930BBA368013BA36023685A1CDB
:105A700022601E7063690130834204D0A389DB0772
:105A800006D50A2E04D12146284600F027F988B908
:105A90003846F8BD0A4B9C4201D1AC68CFE7094BB0
:105AA0009C4208BFEC68CAE72146284600F01AF875
:105AB0000028CBD04FF0FF37EAE700BFEC650008C5
:105AC0000C660008CC65000849B1FF2A85BF8A230F
:105AD00003600A704FF0FF3098BF012070470846FE
