:020000040800F2
:10000000008001205D1700082D1500083315000839
:10001000391500083F1500084515000800000000CC
:100020000000000000000000000000004B15000868
:100030005915000800000000671500087515000834
:10004000AD170008AD170008AD170008AD17000880
:10005000AD170008AD170008AD170008AD17000870
:10006000AD170008AD170008AD170008AD17000860
:10007000AD170008AD170008AD170008AD17000850
:10008000AD170008AD170008AD170008000000000C
:10009000000000000000000000000000AD17000894
:1000A000AD17000885150008AD170008AD1700084A
:1000B000AD170008AD170008AD170008AD17000810
:1000C000AD170008AD170008AD170008AD17000800
:1000D000AD170008AD170008AD17000800000000BC
:1000E000AD170008AD170008AD17000800000000AC
:1000F000000000000000000000000000AD17000834
:1001000000000000AD170008AD170008AD1700088B
:1001100000000000000000000000000000000000DF
:1001200099150008AD170008AD170008AD170008B5
:10013000AD170008000000000000000000000000F3
:10014000000000000000000000000000AD170008E3
:10015000AD170008AD170008AD170008AD1700086F
:10016000AD170008AD1700080000000000000000F7
:10017000000000000000000000000000000000007F
:1001800000000000AD1700080000000000000000A3
:04019000AD1700089F
:1001A00010B5054C237833B9044B13B10448AFF3B1
:1001B00000800123237010BDDC010020000000003E
:1001C0007073000808B5034B1BB103490348AFF334
:1001D000008008BD00000000E001002070730008EE
:1001E000034613F8012B002AFBD1181A0138704777
:1001F00001F0FF01102A2BDB10F0070F08D010F8D8
:10020000013B013A8B422DD010F0070F42B3F6D1DB
:10021000F0B441EA012141EA014122F007047FF0F4
:1002200000070023F0E80256083C85EA010586EA4B
:10023000010685FA47F5A3FA87F586FA47F6A5FA87
:1002400087F68EB9EED1F0BC01F0FF0102F0070293
:1002500032B110F8013B013A83EA010313B1F8D13E
:100260000020704701387047002D06BF354603381F
:10027000073815F0010F07D1013015F4807F02BF58
:10028000013015F4C03F0130F0BC0138704700BFA9
:1002900081F0004102E000BF83F0004330B54FEA37
:1002A00041044FEA430594EA050F08BF90EA020FA4
:1002B0001FBF54EA000C55EA020C7FEA645C7FEA37
:1002C000655C00F0E2804FEA5454D4EB5555B8BF5A
:1002D0006D420CDD2C4480EA020281EA030382EACB
:1002E000000083EA010180EA020281EA0303362D5D
:1002F00088BF30BD11F0004F4FEA01314FF4801C30
:100300004CEA113102D0404261EB410113F0004F41
:100310004FEA03334CEA133302D0524263EB4303F8
:1003200094EA050F00F0A780A4F10104D5F1200E96
:100330000DDB02FA0EFC22FA05F2801841F10001F1
:1003400003FA0EF2801843FA05F359410EE0A5F1C5
:1003500020050EF1200E012A03FA0EFC28BF4CF0F6
:10036000020C43FA05F3C01851EBE37101F00045AC
:1003700007D54FF0000EDCF1000C7EEB00006EEBB9
:100380000101B1F5801F1BD3B1F5001F0CD3490843
:100390005FEA30004FEA3C0C04F101044FEA44529A
:1003A00012F5800F80F09A80BCF1004F08BF5FEA21
:1003B000500C50F1000041EB045141EA050130BD01
:1003C0005FEA4C0C404141EB0101013C28BFB1F513
:1003D000801FE9D291F0000F04BF01460020B1FA5E
:1003E00081F308BF2033A3F10B03B3F120020CDA31
:1003F0000C3208DD02F1140CC2F10C0201FA0CF00F
:1004000021FA02F10CE002F11402D8BFC2F1200C73
:1004100001FA02F120FA0CFCDCBF41EA0C01904029
:10042000E41AA2BF01EB0451294330BD6FEA040472
:100430001F3C1CDA0C340EDC04F11404C4F120025D
:1004400020FA04F001FA02F340EA030021FA04F36F
:1004500045EA030130BDC4F10C04C4F1200220FAC6
:1004600002F001FA04F340EA0300294630BD21FA04
:1004700004F0294630BD94F0000F83F4801306BFCA
:1004800081F480110134013D4EE77FEA645C18BFBE
:100490007FEA655C29D094EA050F08BF90EA020F55
:1004A00005D054EA000C04BF1946104630BD91EA4D
:1004B000030F1EBF0021002030BD5FEA545C05D150
:1004C0004000494128BF41F0004130BD14F580048F
:1004D0003CBF01F5801130BD01F0004545F0FE4103
:1004E00041F470014FF0000030BD7FEA645C1ABF38
:1004F000194610467FEA655C1CBF0B46024650EA6F
:10050000013406BF52EA033591EA030F41F400219A
:1005100030BD00BF90F0000F04BF0021704730B520
:100520004FF4806404F132044FF000054FF00001F5
:1005300050E700BF90F0000F04BF0021704730B5B6
:100540004FF4806404F1320410F0004548BF40428B
:100550004FF000013EE700BF42004FEAE2014FEAE0
:1005600031014FEA02701FBF12F07F4393F07F4FBB
:1005700081F06051704732F07F4208BF704793F0BE
:100580007F4F04BF41F40021704730B54FF46074D1
:1005900001F0004521F000411CE700BF50EA0102D4
:1005A00008BF704730B54FF000050AE050EA01027D
:1005B00008BF704730B511F0004502D5404261EBED
:1005C00041014FF4806404F132045FEA915C3FF42E
:1005D000D8AE4FF003025FEADC0C18BF03325FEACB
:1005E000DC0C18BF033202EBDC02C2F1200300FA7C
:1005F00003FC20FA02F001FA03FE40EA0E0021FAA1
:1006000002F11444BDE600BF70B54FF0FF0C4CF48E
:10061000E06C1CEA11541DBF1CEA135594EA0C0F40
:1006200095EA0C0F00F0DEF82C4481EA030621EA7B
:100630004C5123EA4C5350EA013518BF52EA0335B6
:1006400041F4801143F4801338D0A0FB02CE4FF068
:100650000005E1FB02E506F00042E0FB03E54FF098
:100660000006E1FB03569CF0000F18BF4EF0010E90
:10067000A4F1FF04B6F5007F64F5407404D25FEA8C
:100680004E0E6D4146EB060642EAC62141EA55513F
:100690004FEAC52040EA5E504FEACE2EB4F1FD0C81
:1006A00088BFBCF5E06F1ED8BEF1004F08BF5FEAFF
:1006B000500E50F1000041EB045170BD06F00046B1
:1006C00046EA010140EA020081EA0301B4EB5C045E
:1006D000C2BFD4EB0C0541EA045170BD41F4801156
:1006E0004FF0000E013C00F3AB8014F1360FDEBF7B
:1006F000002001F0004170BDC4F10004203C35DA57
:100700000C341BDC04F11404C4F1200500FA05F3D9
:1007100020FA04F001FA05F240EA020001F000427A
:1007200021F0004110EBD37021FA04F642EB0601F0
:100730005EEA430E08BF20EAD37070BDC4F10C041A
:10074000C4F1200500FA04F320FA05F001FA04F2DE
:1007500040EA020001F0004110EBD37041F10001CA
:100760005EEA430E08BF20EAD37070BDC4F12005D5
:1007700000FA05F24EEA020E20FA04F301FA05F23D
:1007800043EA020321FA04F001F0004121FA04F2E5
:1007900020EA020000EBD3705EEA430E08BF20EAB5
:1007A000D37070BD94F0000F0FD101F000464000EF
:1007B00041EB010111F4801F08BF013CF7D041EA71
:1007C000060195F0000F18BF704703F00046520075
:1007D00043EB030313F4801F08BF013DF7D043EA46
:1007E0000603704794EA0C0F0CEA135518BF95EAFC
:1007F0000C0F0CD050EA410618BF52EA4306D1D183
:1008000081EA030101F000414FF0000070BD50EAA1
:10081000410606BF1046194652EA430619D094EA2B
:100820000C0F02D150EA013613D195EA0C0F05D115
:1008300052EA03361CBF104619460AD181EA030169
:1008400001F0004141F0FE4141F470014FF0000021
:1008500070BD41F0FE4141F4780170BD70B54FF0BC
:10086000FF0C4CF4E06C1CEA11541DBF1CEA13553C
:1008700094EA0C0F95EA0C0F00F0A7F8A4EB05041E
:1008800081EA030E52EA03354FEA013100F0888015
:100890004FEA03334FF0805545EA131343EA1263DE
:1008A0004FEA022245EA111545EA10654FEA002693
:1008B0000EF000419D4208BF964244F1FD0404F54C
:1008C000407402D25B084FEA3202B61A65EB0305A8
:1008D0005B084FEA32024FF480104FF4002CB6EB65
:1008E000020E75EB030E22BFB61A754640EA0C00E5
:1008F0005B084FEA3202B6EB020E75EB030E22BF25
:10090000B61A754640EA5C005B084FEA3202B6EB65
:10091000020E75EB030E22BFB61A754640EA9C0024
:100920005B084FEA3202B6EB020E75EB030E22BFF4
:10093000B61A754640EADC0055EA060E18D04FEAB2
:10094000051545EA16754FEA06164FEAC30343EA52
:1009500052734FEAC2025FEA1C1CC0D111F4801F1F
:100960000BD141EA00014FF000004FF0004CB6E718
:1009700011F4801F04BF01430020B4F1FD0C88BFB7
:10098000BCF5E06F3FF6AFAEB5EB030C04BFB6EBC2
:10099000020C5FEA500C50F1000041EB045170BDB5
:1009A0000EF0004E4EEA113114EB5C04C2BFD4EBE2
:1009B0000C0541EA045170BD41F480114FF0000E66
:1009C000013C90E645EA060E8DE60CEA135594EAE2
:1009D0000C0F08BF95EA0C0F3FF43BAF94EA0C0FE5
:1009E0000AD150EA01347FF434AF95EA0C0F7FF45A
:1009F00025AF104619462CE795EA0C0F06D152EAAE
:100A000003353FF4FDAE1046194622E750EA410691
:100A100018BF52EA43067FF4C5AE50EA41047FF4A2
:100A20000DAF52EA43057FF4EBAE12E74FF0FF3C07
:100A300006E000BF4FF0010C02E000BF4FF0010CD8
:100A40004DF804CD4FEA410C7FEA6C5C4FEA430C51
:100A500018BF7FEA6C5C1BD001B050EA410C0CBFA0
:100A600052EA430C91EA030F02BF90EA020F002002
:100A7000704710F1000F91EA030F58BF994208BF69
:100A800090422CBFD8176FEAE37040F00100704726
:100A90004FEA410C7FEA6C5C02D150EA013C07D17D
:100AA0004FEA430C7FEA6C5CD6D152EA033CD3D0C8
:100AB0005DF8040B704700BF8446104662468C46C2
:100AC0001946634600E000BF01B5FFF7B7FF0028F5
:100AD00048BF10F1000F01BD4DF808EDFFF7F4FF1E
:100AE0000CBF012000205DF808FB00BF4DF808EDA9
:100AF000FFF7EAFF34BF012000205DF808FB00BFCC
:100B00004DF808EDFFF7E0FF94BF012000205DF8ED
:100B100008FB00BF4DF808EDFFF7CEFF94BF0120A2
:100B200000205DF808FB00BF4DF808EDFFF7C4FF9B
:100B300034BF012000205DF808FB00BF4FEA410CE4
:100B40007FEA6C5C02D150EA013C0AD14FEA430CC7
:100B50007FEA6C5C02D152EA033C02D14FF0000004
:100B600070474FF0010070474FEA410212F5001242
:100B700015D211D56FF47873B3EB625212D94FEAE4
:100B8000C12343F0004343EA505311F0004F23FACE
:100B900002F018BF404270474FF00000704750EA23
:100BA000013005D111F0004008BF6FF000407047E0
:100BB0004FF00000704700BF53B94AB9002908BF81
:100BC00000281CBF4FF0FF314FF0FF3000F074B928
:100BD000ADF1080C6DE904CE00F006F8DDF804E094
:100BE000DDE9022304B070472DE9F047089D044673
:100BF0008E46002B4DD18A42944669D9B2FA82F2D0
:100C000052B101FA02F3C2F1200120FA01F10CFA0B
:100C100002FC41EA030E94404FEA1C48210CBEFB43
:100C2000F8F61FFA8CF708FB16E341EA034306FBCC
:100C300007F199420AD91CEB030306F1FF3080F05B
:100C40001F81994240F21C81023E63445B1AA4B2A8
:100C5000B3FBF8F008FB103344EA034400FB07F74A
:100C6000A7420AD91CEB040400F1FF3380F00A818B
:100C7000A74240F207816444023840EA0640E41B80
:100C800000261DB1D4400023C5E900433146BDE82C
:100C9000F0878B4209D9002D00F0EF800026C5E9CE
:100CA000000130463146BDE8F087B3FA83F6002EE6
:100CB0004AD18B4202D3824200F2F980841A61EB5E
:100CC000030301209E46002DE0D0C5E9004EDDE77C
:100CD00002B9FFDEB2FA82F2002A40F09280A1EB64
:100CE0000C014FEA1C471FFA8CFE0126200CB1FBB9
:100CF000F7F307FB131140EA01410EFB03F08842B2
:100D000008D91CEB010103F1FF3802D2884200F23E
:100D1000CB804346091AA4B2B1FBF7F007FB1011D0
:100D200044EA01440EFB00FEA64508D91CEB04046E
:100D300000F1FF3102D2A64500F2BB800846A4EBC9
:100D40000E0440EA03409CE7C6F12007B34022FAB4
:100D500007FC4CEA030C20FA07F401FA06F31C43E3
:100D6000F9404FEA1C4900FA06F3B1FBF9F8200CF0
:100D70001FFA8CFE09FB181140EA014108FB0EF036
:100D8000884202FA06F20BD91CEB010108F1FF3A86
:100D900080F08880884240F28580A8F10208614492
:100DA000091AA4B2B1FBF9F009FB101144EA0141A0
:100DB00000FB0EFE8E4508D91CEB010100F1FF344B
:100DC0006CD28E456AD90238614440EA0840A0FBE3
:100DD0000294A1EB0E01A142C846A64656D353D0B9
:100DE0005DB1B3EB080261EB0E0101FA07F722FADD
:100DF00006F3F1401F43C5E9007100263146BDE806
:100E0000F087C2F12003D8400CFA02FC21FA03F368
:100E1000914001434FEA1C471FFA8CFEB3FBF7F0E9
:100E200007FB10360B0C43EA064300FB0EF69E420E
:100E300004FA02F408D91CEB030300F1FF382FD2A7
:100E40009E422DD9023863449B1B89B2B3FBF7F64F
:100E500007FB163341EA034106FB0EF38B4208D928
:100E60001CEB010106F1FF3816D28B4214D9023E69
:100E70006144C91A46EA004638E72E46284605E787
:100E80000646E3E61846F8E64B45A9D2B9EB020858
:100E900064EB0C0E0138A3E74646EAE7204694E7E8
:100EA0004046D1E7D0467BE7023B614432E730461B
:100EB00009E76444023842E7704700BF00000000C1
:100EC00080B584B000AF00F073FC00F089F800F04A
:100ED00093F900F071F900F0E3F800F043F93A48B3
:100EE00000F010FD02223949374800F0BFFD374BB2
:100EF0001B881A463649374803F0C2FF3548FFF7CA
:100F00006FF903469AB24FF0FF333249324802F08C
:100F1000C8FE2E4B5B881A462D492E4803F0B0FFC1
:100F20002C48FFF75DF903469AB24FF0FF33294989
:100F3000294802F0B6FEC82000F07CFC4FF0000209
:100F4000264BC7E90223D7E9022317A1D1E9000103
:100F5000FFF7A2F902460B461046194614A3D3E93F
:100F60000023FFF77BFC02460B461046194612A3EE
:100F7000D3E90023FFF792F902460B4643EC172B07
:100F8000B0EE470AF0EE670A03F000FA51EC100BDE
:100F90000BA3D3E90023FFF77FF902460B46C7E90D
:100FA00000239FE7AFF30080FB3A70CE88D2FD3F6D
:100FB00044CA68471E46D03E0000000074C140414C
:100FC000A4703D0AD7279740F8010020EC020020CA
:100FD00088730008E4020020A00200200000F43F13
:100FE00080B594B000AF07F12003302200211846ED
:100FF00003F0D4FA07F10C0300221A605A609A60D9
:10100000DA601A610023BB60234B1B6C224A43F059
:1010100080531364204B1B6C03F08053BB60BB6890
:1010200000237B601D4B1B6823F440431B4A43F4A1
:1010300000431360194B1B6803F440437B607B68DB
:1010400002233B620123FB6210233B630023BB634B
:1010500007F12003184601F08DFE0346002B01D056
:1010600000F004F90F23FB6000233B6100237B6148
:101070000023BB610023FB6107F10C03002118462C
:1010800002F0F0F80346002B01D000F0EFF800BFAB
:101090005037BD4680BD00BF0038024000700040A0
:1010A00080B584B000AF3B4600221A605A609A6057
:1010B000DA60294B294A1A60274B00225A60264BD6
:1010C00000229A60244B01221A61234B00221A76D7
:1010D000214B002283F820201F4B0022DA621E4B96
:1010E0001F4A9A621C4B0022DA601B4B0222DA6113
:1010F000194B002283F83020174B01225A61164801
:1011000000F0BCFB0346002B01D000F0AFF8052334
:101110003B6001237B600023BB603B4619460E48C1
:1011200000F0B2FD0346002B01D000F09FF806232B
:101130003B6002237B600123BB603B4619460648A7
:1011400000F0A2FD0346002B01D000F08FF800BF95
:101150001037BD4680BD00BFF801002000200140CF
:101160000100000F80B500AF114B124A1A60104BFE
:101170004FF416525A600E4B00229A600C4B00221C
:10118000DA600B4B00221A61094B0C225A61084BA2
:1011900000229A61064B0022DA61054802F034FD14
:1011A0000346002B01D000F061F800BF80BD00BFF6
:1011B000A00200200044004080B582B000AF0023B0
:1011C0007B600C4B1B6B0B4A43F480031363094B8E
:1011D0001B6B03F480037B607B68002200213820B6
:1011E00001F0AAF8382001F0C3F800BF0837BD4667
:1011F00080BD00BF0038024080B483B000AF002340
:101200007B60104B1B6B0F4A43F0800313630D4B45
:101210001B6B03F080037B607B6800233B60094B02
:101220001B6B084A43F001031363064B1B6B03F06F
:1012300001033B603B6800BF0C37BD465DF8047B93
:10124000704700BF0038024080B582B000AF7860C0
:101250007B681B68044A934201D100F0CBFA00BFBF
:101260000837BD4680BD00BF0000014080B400AF1C
:1012700072B600BFFEE7000080B483B000AF002369
:101280007B60104B5B6C0F4A43F4804353640D4BFF
:101290005B6C03F480437B607B6800233B60094BFD
:1012A0001B6C084A43F080531364064B1B6C03F01D
:1012B00080533B603B6800BF0C37BD465DF8047B44
:1012C000704700BF0038024080B58AB000AF786038
:1012D00007F1140300221A605A609A60DA601A61FA
:1012E0007B681B682F4A934257D100233B612E4BEA
:1012F0005B6C2D4A43F4807353642B4B5B6C03F49B
:1013000080733B613B690023FB60274B1B6B264AC4
:1013100043F001031363244B1B6B03F00103FB60D9
:10132000FB6860237B610323BB610023FB6107F142
:10133000140319461D4801F099FB1D4B1D4A1A6004
:101340001B4B00225A601A4B00229A60184B002255
:10135000DA60174B4FF480621A61154B4FF400624C
:101360005A61134B4FF400529A61114B4FF4807243
:10137000DA610F4B00221A620D4B00225A620C48B0
:1013800001F004F80346002B01D0FFF76FFF7B68E4
:10139000074A9A63064A7B68936300BF2837BD46B5
:1013A00080BD00BF00200140003802400000024024
:1013B000400200201064024080B58AB000AF78601F
:1013C00007F1140300221A605A609A60DA601A6109
:1013D0007B681B68194A93422BD100233B61184B51
:1013E0001B6C174A43F400331364154B1B6C03F456
:1013F00000333B613B690023FB60114B1B6B104AC0
:1014000043F0010313630E4B1B6B03F00103FB60FE
:10141000FB680C237B610223BB610023FB61032378
:101420003B6207237B6207F114031946054801F06C
:101430001DFB00BF2837BD4680BD00BF00440040F3
:10144000003802400000024080B58CB000AF7860E8
:101450000023BB6200237B620023BB602E4B5B6CCE
:101460002D4A43F0010353642B4B5B6C03F00103E3
:10147000BB60BB6807F10C0207F110031146184668
:1014800002F010F902F0FAF8B862BB6A234AA2FB34
:1014900003239B0C013B7B62214B224A1A60204BA9
:1014A00040F2E732DA601E4A7B6A53601C4B00222E
:1014B0001A611B4B00229A60194B00229A6118484E
:1014C00002F022F9034687F82F3097F82F30002BCF
:1014D0001BD1134802F072F9034687F82F3097F8B2
:1014E0002F30002B11D1192000F042FF7B680F2B09
:1014F00008D800227968192000F01EFF0A4A7B688C
:10150000136002E0012387F82F3097F82F30184638
:101510003037BD4680BD00BF0038024083DE1B432C
:10152000F0020020000001400400002080B400AF61
:10153000FEE780B400AFFEE780B400AFFEE780B402
:1015400000AFFEE780B400AFFEE780B400AF00BF9D
:10155000BD465DF8047B704780B400AF00BFBD4658
:101560005DF8047B704780B400AF00BFBD465DF8F6
:10157000047B704780B400AF00BFBD465DF8047BBC
:101580007047000080B500AF024802F079F900BF53
:1015900080BD00BFF002002080B500AF024800F01F
:1015A000FBFF00BF80BD00BF4002002080B400AF41
:1015B00001231846BD465DF8047B704780B582B0B4
:1015C00000AF7860396002F0BFFF034616221A6050
:1015D0004FF0FF3318460837BD4680BD80B582B056
:1015E00000AF78604FF0FF317868FFF7E7FFFEE764
:1015F00080B586B000AFF860B9607A6000237B6187
:101600000AE0AFF300800146BB685A1CBA60CAB258
:101610001A707B6901337B617A697B689A42F0DBDF
:101620007B6818461837BD4680BD80B586B000AFD0
:10163000F860B9607A6000237B6109E0BB685A1CDE
:10164000BA601B781846AFF300807B6901337B6179
:101650007A697B689A42F1DB7B6818461837BD4689
:1016600080BD80B483B000AF78604FF0FF33184680
:101670000C37BD465DF8047B704780B483B000AF83
:10168000786039603B684FF400525A600023184676
:101690000C37BD465DF8047B704780B483B000AF63
:1016A0007860012318460C37BD465DF8047B70470F
:1016B00080B485B000AFF860B9607A600023184646
:1016C0001437BD465DF8047B7047000080B586B0D6
:1016D00000AF7860144A154BD31A7B617B693B617C
:1016E000134B1B68002B02D1114B124A1A60104B8E
:1016F0001A687B6813443A699A4207D202F024FFC1
:1017000003460C221A604FF0FF3309E0084B1B68B8
:10171000FB60074B1A687B681344054A1360FB683B
:1017200018461837BD4680BD008001200004000027
:10173000380300205003002080B400AF064BD3F8DC
:101740008830054A43F47003C2F8883000BFBD46B4
:101750005DF8047B704700BF00ED00E0DFF834D097
:101760000D480E490E4A002302E0D458C4500433F9
:10177000C4188C42F9D30B4A0B4C002301E01360D0
:101780000432A242FBD3FFF7D7FF02F0E3FEFFF7DC
:1017900097FB70470080012000000020DC01002042
:1017A0009C770008DC01002050030020FEE70000C9
:1017B00080B500AF0E4B1B680D4A43F400731360F5
:1017C0000B4B1B680A4A43F480631360084B1B6889
:1017D000074A43F480731360032000F0A2FD0F203A
:1017E000FFF732FEFFF748FD0023184680BD00BF1B
:1017F000003C024080B400AF064B1B781A46064BF3
:101800001B681344044A136000BFBD465DF8047BA7
:10181000704700BF080000203C03002080B400AFE8
:10182000034B1B681846BD465DF8047B704700BF3C
:101830003C03002080B584B000AF7860FFF7EEFF76
:10184000B8607B68FB60FB68B3F1FF3F05D00A4BD3
:101850001B781A46FB681344FB6000BFFFF7DEFFEE
:101860000246BB68D31AFA689A42F7D800BF00BF95
:101870001037BD4680BD00BF0800002080B584B091
:1018800000AF78600023FB737B68002B01D101233C
:1018900033E07B681B6C002B09D17868FFF714FDDF
:1018A0007B6800225A647B68002283F83C207B68B6
:1018B0001B6C03F01003002B18D17B681B6C23F406
:1018C000885323F0020343F002027B681A647868AD
:1018D00000F0FCFA7B6800225A647B681B6C23F0E2
:1018E000030343F001027B681A6401E00123FB73E8
:1018F0007B68002283F83C20FB7B18461037BD46EE
:1019000080BD000080B485B000AF78600023BB606C
:101910007B6893F83C30012B01D1022397E07B6870
:10192000012283F83C207B681B689B6803F001035D
:10193000012B18D07B681B689A687B681B6842F093
:1019400001029A60454B1B68454AA2FB03239A0C8F
:1019500013465B001344BB6002E0BB68013BBB6005
:10196000BB68002BF9D17B681B689B6803F00103FF
:10197000012B5FD17B681B6C23F4E06323F0010330
:1019800043F480727B681A647B681B685B6803F4AD
:101990008063002B07D07B681B6C23F4405343F417
:1019A00080527B681A647B681B6C03F48053B3F528
:1019B000805F06D17B685B6C23F006027B685A640B
:1019C00002E07B6800225A647B68002283F83C2096
:1019D000244BFB607B681B686FF022021A60FB6877
:1019E0005B6803F01F03002B0FD17B681B689B68AB
:1019F00003F04053002B29D17B681B689A687B68F1
:101A00001B6842F080429A6020E07B681B68164A9F
:101A100093421BD17B681B689B6803F04053002BEB
:101A200014D17B681B689A687B681B6842F080420F
:101A30009A600BE07B681B6C43F010027B681A64B1
:101A40007B685B6C43F001027B685A640023184694
:101A50001437BD465DF8047B704700BF00000020CE
:101A600083DE1B43002301400020014080B586B087
:101A700000AFF860B9607A6000233B61FB6893F8BF
:101A80003C30012B01D10223CEE0FB68012283F818
:101A90003C20FB681B689B6803F00103012B18D0F6
:101AA000FB681B689A68FB681B6842F001029A6039
:101AB0005F4B1B685F4AA2FB03239A0C13465B0033
:101AC00013443B6102E03B69013B3B613B69002BF6
:101AD000F9D1FB681B689B6803F48073B3F5807FC2
:101AE00007D1FB681B689A68FB681B6822F4807248
:101AF0009A60FB681B689B6803F00103012B40F0B0
:101B00008680FB681B6C23F4E06323F0010343F43D
:101B10008072FB681A64FB681B685B6803F480636F
:101B2000002B07D0FB681B6C23F4405343F4805216
:101B3000FB681A64FB681B6C03F48053B3F5805F89
:101B400006D1FB685B6C23F00602FB685A6402E076
:101B5000FB6800225A64FB68002283F83C20364B65
:101B60007B61FB689B6B354ADA63FB689B6B344A8D
:101B70001A64FB689B6B334ADA64FB681B686FF07E
:101B800022021A60FB681B685A68FB681B6842F0F7
:101B900080625A60FB681B689A68FB681B6842F4A5
:101BA00080729A60FB68986BFB681B684C3319461F
:101BB000BA687B6800F098FC7B695B6803F01F03E0
:101BC000002B0FD1FB681B689B6803F04053002B70
:101BD00029D1FB681B689A68FB681B6842F0804249
:101BE0009A6020E0FB681B68174A93421BD1FB6890
:101BF0001B689B6803F04053002B14D1FB681B68E3
:101C00009A68FB681B6842F080429A600BE0FB68B0
:101C10001B6C43F01002FB681A64FB685B6C43F0BA
:101C20000102FB685A64002318461837BD4680BD80
:101C30000000002083DE1B4300230140C520000874
:101C40007F2100089B2100080020014080B483B060
:101C500000AF786000BF0C37BD465DF8047B70476D
:101C600080B483B000AF786000BF0C37BD465DF82C
:101C7000047B704780B483B000AF786000BF0C373E
:101C8000BD465DF8047B704780B485B000AF7860D6
:101C900039600023BB607B6893F83C30012B01D195
:101CA000022305E17B68012283F83C203B681B6826
:101CB000092B25D97B681B68D9683B681B689BB2D8
:101CC0001A4613465B0013441E3B072202FA03F335
:101CD000DA437B681B680A40DA607B681B68D96856
:101CE0003B689A683B681B689BB2184603465B00DA
:101CF00003441E3B9A407B681B680A43DA6022E07B
:101D00007B681B6819693B681B689BB21A461346BF
:101D10005B001344072202FA03F3DA437B681B6873
:101D20000A401A617B681B6819693B689A683B68BE
:101D30001B689BB2184603465B0003449A407B68CD
:101D40001B680A431A613B685B68062B24D87B68D2
:101D50001B68596B3B685A6813469B001344053B4C
:101D60001F2202FA03F3DA437B681B680A405A63B6
:101D70007B681B68596B3B681B689BB218463B68C5
:101D80005A6813469B001344053B00FA03F27B6834
:101D90001B680A435A634CE03B685B680C2B24D8F1
:101DA0007B681B68196B3B685A6813469B00134499
:101DB000233B1F2202FA03F3DA437B681B680A40C5
:101DC0001A637B681B68196B3B681B689BB21846DB
:101DD0003B685A6813469B001344233B00FA03F206
:101DE0007B681B680A431A6323E07B681B68D96A17
:101DF0003B685A6813469B001344413B1F2202FA7A
:101E000003F3DA437B681B680A40DA627B681B686D
:101E1000D96A3B681B689BB218463B685A681346F0
:101E20009B001344413B00FA03F27B681B680A43A2
:101E3000DA62224BFB607B681B68214A934209D11E
:101E40003B681B68122B05D1FB685B6843F480027A
:101E5000FB685A607B681B68194A934223D13B6830
:101E60001B68102B03D03B681B68112B1BD1FB6830
:101E70005B6843F40002FB685A603B681B68102BE8
:101E800011D1104B1B68104AA2FB03239A0C134676
:101E90009B0013445B00BB6002E0BB68013BBB607E
:101EA000BB68002BF9D17B68002283F83C2000231B
:101EB00018461437BD465DF8047B70470023014087
:101EC000002001400000002083DE1B4380B485B069
:101ED00000AF7860794BFB60FB685B6823F44032AD
:101EE000FB685A60FB685A687B685B681A43FB684A
:101EF0005A607B681B685A687B681B6822F4807292
:101F00005A607B681B6859687B681B691A027B688A
:101F10001B680A435A607B681B685A687B681B68A9
:101F200022F040725A607B681B6859687B689A6827
:101F30007B681B680A435A607B681B689A687B68E9
:101F40001B6822F400629A607B681B6899687B6852
:101F5000DA687B681B680A439A607B689B6A584A08
:101F6000934222D07B681B689A687B681B6822F0CA
:101F700070629A607B681B6899687B689A6A7B6864
:101F80001B680A439A607B681B689A687B681B68B9
:101F900022F040529A607B681B6899687B68DA6A15
:101FA0007B681B680A439A600FE07B681B689A682D
:101FB0007B681B6822F070629A607B681B689A6875
:101FC0007B681B6822F040529A607B681B689A68A5
:101FD0007B681B6822F002029A607B681B68996824
:101FE0007B681B7E5A007B681B680A439A607B688B
:101FF00093F82030002B1BD07B681B685A687B68E5
:102000001B6842F400625A607B681B685A687B68F0
:102010001B6822F460425A607B681B6859687B68C1
:102020005B6A013B5A037B681B680A435A6007E0FE
:102030007B681B685A687B681B6822F400625A60E0
:102040007B681B68DA6A7B681B6822F47002DA62BC
:102050007B681B68D96A7B68DB69013B1A057B6872
:102060001B680A43DA627B681B689A687B681B6896
:1020700022F400729A607B681B6899687B6893F809
:1020800030305A027B681B680A439A607B681B6881
:102090009A687B681B6822F480629A607B681B6880
:1020A00099687B685B699A027B681B680A439A603F
:1020B00000BF1437BD465DF8047B70470023014024
:1020C0000100000F80B584B000AF78607B689B6B27
:1020D000FB60FB681B6C03F05003002B3CD1FB68DA
:1020E0001B6C43F40072FB681A64FB681B689B68F6
:1020F00003F04053002B2BD1FB681B7E002B27D114
:10210000FB681B68DB6A03F47003002B06D0FB68D6
:102110001B689B6803F48063002B19D1FB681B6864
:102120005A68FB681B6822F020025A60FB681B6C2F
:1021300023F48072FB681A64FB681B6C03F4805301
:10214000002B05D1FB681B6C43F00102FB681A648D
:10215000F868FFF77BFD0EE0FB681B6C03F01003D3
:10216000002B03D0F868FFF785FD04E0FB689B6B4C
:10217000DB6C7868984700BF1037BD4680BD80B5DE
:1021800084B000AF78607B689B6BFB60F868FFF7FA
:1021900067FD00BF1037BD4680BD80B584B000AF7D
:1021A00078607B689B6BFB60FB6840221A64FB686D
:1021B0005B6C43F00402FB685A64F868FFF75AFD51
:1021C00000BF1037BD4680BD80B485B000AF7860D9
:1021D0007B6803F00703FB600C4BDB68BB60BA68ED
:1021E0004FF6FF031340BB60FB681A02BB68134342
:1021F00043F0BF6343F40033BB60044ABB68D36061
:1022000000BF1437BD465DF8047B704700ED00E069
:1022100080B400AF044BDB681B0A03F007031846C9
:10222000BD465DF8047B704700ED00E080B483B0EC
:1022300000AF0346FB7197F90730002B0BDBFB79EE
:1022400003F01F02074997F907305B09012000FAE4
:1022500002F241F8232000BF0C37BD465DF8047B35
:10226000704700BF00E100E080B483B000AF0346D8
:102270003960FB7197F90730002B0ADB3B68DAB253
:102280000C4997F907301201D2B20B4483F80023AE
:102290000AE03B68DAB20849FB7903F00F03043B1C
:1022A0001201D2B20B441A7600BF0C37BD465DF85E
:1022B000047B704700E100E000ED00E080B489B0ED
:1022C00000AFF860B9607A60FB6803F00703FB6158
:1022D000FB69C3F10703042B28BF0423BB61FB691F
:1022E0000433062B02D9FB69033B00E000237B612A
:1022F0004FF0FF32BB6902FA03F3DA43BB681A40BE
:102300007B699A404FF0FF317B6901FA03F3D943AF
:102310007B680B40134318462437BD465DF8047BA9
:10232000704780B582B000AF78607868FFF74CFFE7
:1023300000BF0837BD4680BD80B586B000AF0346FC
:10234000B9607A60FB7300237B61FFF761FF7861FE
:102350007A68B9687869FFF7B1FF024697F90F30DC
:1023600011461846FFF780FF00BF1837BD4680BDF5
:1023700080B582B000AF0346FB7197F9073018466D
:10238000FFF754FF00BF0837BD4680BD80B586B05B
:1023900000AF786000237B61FFF740FA38617B680B
:1023A000002B01D1012399E07B68022283F83520BC
:1023B0007B68002283F834207B681B681A687B687E
:1023C0001B6822F001021A600FE0FFF727FA0246AD
:1023D0003B69D31A052B08D97B6820225A657B6894
:1023E000032283F83520032378E07B681B681B6891
:1023F00003F00103002BE8D17B681B681B687B613D
:102400007A69384B13407B617B685A687B689B68AC
:102410001A437B68DB681A437B681B691A437B6835
:102420005B691A437B689B691A437B68DB691A43C3
:102430007B681B6A13437A6913437B617B685B6A21
:10244000042B07D17B68DA6A7B681B6B13437A69BC
:1024500013437B617B681B687A691A607B681B6821
:102460005B697B617B6923F007037B617B685B6A47
:102470007A6913437B617B685B6A042B17D17B68A5
:102480009B6A7A6913437B617B68DB6A002B0ED001
:10249000786800F06FFA0346002B08D07B68402272
:1024A0005A657B68012283F83520012316E07B689A
:1024B0001B687A695A61786800F026FA0346FB6067
:1024C0007B68DB6D3F229A40FB689A607B68002244
:1024D0005A657B68012283F8352000231846183797
:1024E000BD4680BD3F8010F080B586B000AFF8607B
:1024F000B9607A603B600023FB75FB689B6D3B61B4
:10250000FB6893F83430012B01D1022340E0FB68D3
:10251000012283F83420FB6893F83530DBB2012BBD
:102520002FD1FB68022283F83520FB6800225A6510
:102530003B687A68B968F86800F0B8F9FB68DB6D49
:102540003F229A403B699A60FB681B681A68FB68E7
:102550001B6842F016021A60FB681B6C002B07D048
:10256000FB681B681A68FB681B6842F008021A6067
:10257000FB681B681A68FB681B6842F001021A605E
:1025800005E0FB68002283F834200223FB75FB7D05
:1025900018461837BD4680BD80B586B000AF78605C
:1025A0000023BB608E4B1B688E4AA2FB03239B0A51
:1025B0007B617B689B6D3B613B691B68FB607B6853
:1025C000DB6D08229A40FB681340002B1AD07B6811
:1025D0001B681B6803F00403002B13D07B681B6887
:1025E0001A687B681B6822F004021A607B68DB6D46
:1025F00008229A403B699A607B685B6D43F0010258
:102600007B685A657B68DB6D01229A40FB6813404A
:10261000002B12D07B681B685B6903F08003002BE2
:102620000BD07B68DB6D01229A403B699A607B6826
:102630005B6D43F002027B685A657B68DB6D0422A8
:102640009A40FB681340002B12D07B681B681B6804
:1026500003F00203002B0BD07B68DB6D04229A4051
:102660003B699A607B685B6D43F004027B685A6546
:102670007B68DB6D10229A40FB681340002B43D02F
:102680007B681B681B6803F00803002B3CD07B6849
:10269000DB6D10229A403B699A607B681B681B685F
:1026A00003F48023002B18D07B681B681B6803F49D
:1026B0000023002B08D17B681B6C002B24D07B6887
:1026C0001B6C786898471FE07B689B6C002B1BD0C5
:1026D0007B689B6C7868984716E07B681B681B6872
:1026E00003F48073002B07D17B681B681A687B6832
:1026F0001B6822F008021A607B681B6C002B03D059
:102700007B681B6C786898477B68DB6D20229A4059
:10271000FB681340002B00F08F807B681B681B68F0
:1027200003F01003002B00F087807B68DB6D202214
:102730009A403B699A607B6893F83530DBB2052B91
:1027400036D17B681B681A687B681B6822F016020A
:102750001A607B681B685A697B681B6822F08002DC
:102760005A617B681B6C002B03D17B689B6C002B30
:1027700007D07B681B681A687B681B6822F0080218
:102780001A607B68DB6D3F229A403B699A607B68E8
:10279000012283F835207B68002283F834207B688F
:1027A0001B6D002B7ED07B681B6D7868984779E0A5
:1027B0007B681B681B6803F48023002B1DD07B689B
:1027C0001B681B6803F40023002B0DD17B685B6C36
:1027D000002B31D07B685B6C786898472CE000BF99
:1027E00000000020B5814E1B7B68DB6B002B23D0E3
:1027F0007B68DB6B786898471EE07B681B681B680A
:1028000003F48073002B0FD17B681B681A687B6808
:102810001B6822F010021A607B68012283F83520C1
:102820007B68002283F834207B68DB6B002B03D0AD
:102830007B68DB6B786898477B685B6D002B32D0D8
:102840007B685B6D03F00103002B22D07B680522BF
:1028500083F835207B681B681A687B681B6822F048
:1028600001021A60BB680133BB607A699A4207D3E0
:102870007B681B681B6803F00103002BF2D100E0AA
:1028800000BF7B68012283F835207B68002283F833
:1028900034207B68DB6C002B05D07B68DB6C7868B0
:1028A000984700E000BF1837BD4680BD80B485B0B2
:1028B00000AFF860B9607A603B60FB681B681A681B
:1028C000FB681B6822F480221A60FB681B683A6868
:1028D0005A60FB689B68402B08D1FB681B687A68CC
:1028E0009A60FB681B68BA68DA6007E0FB681B68DF
:1028F000BA689A60FB681B687A68DA6000BF1437B0
:10290000BD465DF8047B704780B485B000AF786049
:102910007B681B68DBB2103B144AA2FB03231B0934
:10292000FB60134AFB6813441B781A467B68DA6520
:10293000FB68032B09D97B681B6823F47F7323F0A2
:1029400003031A1D7B689A6507E07B681B6823F404
:102950007F7323F003037A6893657B689B6D184649
:102960001437BD465DF8047B704700BFABAAAAAA26
:10297000A873000880B485B000AF78600023FB73B3
:102980007B689B6ABB607B689B69002B1FD1BB681F
:10299000032B56D801A252F823F000BFAD2900083E
:1029A000BF290008AD290008432A00087B68DB6ABC
:1029B00003F08073002B46D00123FB7343E07B6858
:1029C000DB6AB3F1C07F40D10123FB733DE07B683C
:1029D0009B69B3F5005F21D1BB68032B37D801A2F7
:1029E00052F823F0F5290008FB290008F529000812
:1029F0000D2A00080123FB7330E07B68DB6A03F0DB
:102A00008073002B25D00123FB7322E07B68DB6AF7
:102A1000B3F1C07F1FD10123FB731CE0BB68022B05
:102A200003D9BB68032B03D018E00123FB7315E027
:102A30007B68DB6A03F08073002B0ED00123FB73ED
:102A40000BE000BF0AE000BF08E000BF06E000BFE7
:102A500004E000BF02E000BF00E000BFFB7B1846BF
:102A60001437BD465DF8047B704700BF80B489B061
:102A700000AF7860396000237B6100233B61002355
:102A8000BB610023FB6159E10122FB6902FA03F3F8
:102A90007B613B681B687A6913403B613A697B69DB
:102AA0009A4240F048813B685B6803F00303012BC6
:102AB00005D03B685B6803F00303022B30D17B68D1
:102AC0009B68BB61FB695B00032202FA03F3DB43F3
:102AD000BA691340BB613B68DA68FB695B0002FAC4
:102AE00003F3BA691343BB617B68BA699A607B6878
:102AF0005B68BB610122FB6902FA03F3DB43BA693D
:102B00001340BB613B685B681B0903F00102FB6972
:102B100002FA03F3BA691343BB617B68BA695A606E
:102B20003B685B6803F00303032B17D07B68DB680B
:102B3000BB61FB695B00032202FA03F3DB43BA6962
:102B40001340BB613B689A68FB695B0002FA03F3C0
:102B5000BA691343BB617B68BA69DA603B685B683A
:102B600003F00303022B23D1FB69DA087B680832E8
:102B700053F82230BB61FB6903F007039B000F226F
:102B800002FA03F3DB43BA691340BB613B681A697D
:102B9000FB6903F007039B0002FA03F3BA691343CE
:102BA000BB61FB69DA087B680832B96943F8221017
:102BB0007B681B68BB61FB695B00032202FA03F3BD
:102BC000DB43BA691340BB613B685B6803F00302F7
:102BD000FB695B0002FA03F3BA691343BB617B68CC
:102BE000BA691A603B685B6803F44033002B00F05D
:102BF000A2800023FB60574B5B6C564A43F4804332
:102C00005364544B5B6C03F48043FB60FB68524A93
:102C1000FB699B08023352F82330BB61FB6903F068
:102C200003039B000F2202FA03F3DB43BA6913404C
:102C3000BB617B68494A934219D07B68484A9342FA
:102C400013D07B68474A93420DD07B68464A934233
:102C500007D07B68454A934201D1042308E007234B
:102C600006E0032304E0022302E0012300E0002346
:102C7000FA6902F0030292009340BA691343BB6100
:102C80003549FB699B080233BA6941F82320384B68
:102C90009B68BB613B69DB43BA691340BB613B681E
:102CA0005B6803F48013002B03D0BA693B691343BC
:102CB000BB612F4ABB6993602D4BDB68BB613B69ED
:102CC000DB43BA691340BB613B685B6803F40013E4
:102CD000002B03D0BA693B691343BB61244ABB692B
:102CE000D360234B5B68BB613B69DB43BA6913402C
:102CF000BB613B685B6803F40033002B03D0BA6907
:102D00003B691343BB611A4ABB695360184B1B688C
:102D1000BB613B69DB43BA691340BB613B685B68DD
:102D200003F48033002B03D0BA693B691343BB61C2
:102D30000F4ABB691360FB690133FB61FB690F2B11
:102D40007FF6A2AE00BF00BF2437BD465DF8047B0E
:102D5000704700BF003802400038014000000240C8
:102D60000004024000080240000C02400010024033
:102D7000003C014080B586B000AF78607B68002BD6
:102D800001D1012367E27B681B6803F00103002B7C
:102D900075D0884B9B6803F00C03042B0CD0854B3B
:102DA0009B6803F00C03082B12D1824B5B6803F481
:102DB0008003B3F5800F0BD17E4B1B6803F4003307
:102DC000002B5BD07B685B68002B57D1012342E26C
:102DD0007B685B68B3F5803F06D1764B1B68754A0C
:102DE00043F4803313601DE07B685B68B3F5A02F6C
:102DF0000CD1704B1B686F4A43F4802313606D4BFA
:102E00001B686C4A43F4803313600BE0694B1B680A
:102E1000684A23F480331360664B1B68654A23F4C9
:102E2000802313607B685B68002B13D0FEF7F6FCF1
:102E3000386108E0FEF7F2FC02463B69D31A642BC6
:102E400001D9032307E25B4B1B6803F40033002B1B
:102E5000F0D014E0FEF7E2FC386108E0FEF7DEFC9B
:102E600002463B69D31A642B01D90323F3E1514B8A
:102E70001B6803F40033002BF0D100E000BF7B6837
:102E80001B6803F00203002B63D04A4B9B6803F0DE
:102E90000C03002B0BD0474B9B6803F00C03082B53
:102EA0001CD1444B5B6803F48003002B16D1414BCB
:102EB0001B6803F00203002B05D07B68DB68012B45
:102EC00001D00123C7E13B4B1B6823F0F8027B686C
:102ED0001B69DB00374913430B603AE07B68DB6812
:102EE000002B20D0344B01221A60FEF797FC38618A
:102EF00008E0FEF793FC02463B69D31A022B01D986
:102F00000323A8E12B4B1B6803F00203002BF0D036
:102F1000284B1B6823F0F8027B681B69DB002549FE
:102F200013430B6015E0244B00221A60FEF776FC79
:102F3000386108E0FEF772FC02463B69D31A022BA7
:102F400001D9032387E11B4B1B6803F00203002B0D
:102F5000F0D17B681B6803F00803002B36D07B6838
:102F60005B69002B16D0154B01221A60FEF756FC48
:102F7000386108E0FEF752FC02463B69D31A022B87
:102F800001D9032367E10B4B5B6F03F00203002BB6
:102F9000F0D01BE0094B00221A60FEF73FFC3861BD
:102FA0000EE0FEF73BFC02463B69D31A022B07D921
:102FB000032350E10038024000004742800E4742A0
:102FC000884B5B6F03F00203002BEAD17B681B6820
:102FD00003F00403002B00F097800023FB75814B66
:102FE0001B6C03F08053002B0FD10023BB607D4B83
:102FF0001B6C7C4A43F0805313647A4B1B6C03F0C8
:103000008053BB60BB680123FB75774B1B6803F4DF
:103010008073002B18D1744B1B68734A43F4807380
:103020001360FEF7FBFB386108E0FEF7F7FB024692
:103030003B69D31A022B01D903230CE16A4B1B68AD
:1030400003F48073002BF0D07B689B68012B06D1C2
:10305000644B1B6F634A43F0010313671CE07B68FA
:103060009B68052B0CD15F4B1B6F5E4A43F004033A
:1030700013675C4B1B6F5B4A43F0010313670BE064
:10308000584B1B6F574A23F001031367554B1B6FB7
:10309000544A23F0040313677B689B68002B15D008
:1030A000FEF7BCFB38610AE0FEF7B8FB02463B695D
:1030B000D31A41F28832934201D90323CBE0494B22
:1030C0001B6F03F00203002BEED014E0FEF7A6FB0B
:1030D00038610AE0FEF7A2FB02463B69D31A41F2CF
:1030E0008832934201D90323B5E03E4B1B6F03F0B6
:1030F0000203002BEED1FB7D012B05D1394B1B6C5C
:10310000384A23F0805313647B689B69002B00F0DE
:10311000A180344B9B6803F00C03082B5CD07B68C8
:103120009B69022B41D1314B00221A60FEF776FBDE
:10313000386108E0FEF772FB02463B69D31A022BA6
:1031400001D9032387E0274B1B6803F00073002B92
:10315000F0D17B68DA697B681B6A1A437B685B6A1B
:103160009B011A437B689B6A5B08013B1B041A4363
:103170007B68DB6A1B061B4913434B601B4B012218
:103180001A60FEF74BFB386108E0FEF747FB02468A
:103190003B69D31A022B01D903235CE0114B1B6856
:1031A00003F00073002BF0D054E0104B00221A60A3
:1031B000FEF734FB386108E0FEF730FB02463B695E
:1031C000D31A022B01D9032345E0064B1B6803F0F9
:1031D0000073002BF0D13DE07B689B69012B07D188
:1031E000012338E000380240007000406000474290
:1031F0001B4B5B68FB607B689B69012B28D0FB68DD
:1032000003F480027B68DB699A4221D1FB6803F0FA
:103210003F027B681B6A9A421AD1FA6847F6C0736C
:1032200013407A68526A9201934211D1FB6803F409
:1032300040327B689B6A5B08013B1B049A4207D1C2
:10324000FB6803F070627B68DB6A1B069A4201D060
:10325000012300E0002318461837BD4680BD00BF9B
:103260000038024080B584B000AF786039607B6878
:10327000002B01D10123CCE0684B1B6803F007034E
:103280003A689A420CD9654B3A68D2B21A70634BCD
:103290001B6803F007033A689A4201D00123B8E0A3
:1032A0007B681B6803F00203002B20D07B681B683F
:1032B00003F00403002B05D0594B9B68584A43F494
:1032C000E05393607B681B6803F00803002B05D074
:1032D000534B9B68524A43F460439360504B9B6846
:1032E00023F0F0027B689B684D4913438B607B6839
:1032F0001B6803F00103002B44D07B685B68012B43
:1033000007D1474B1B6803F40033002B19D101236D
:103310007FE07B685B68022B03D07B685B68032BD4
:1033200007D13F4B1B6803F00073002B09D1012329
:103330006FE03B4B1B6803F00203002B01D101231C
:1033400067E0374B9B6823F003027B685B68344976
:1033500013438B60FEF762FAF8600AE0FEF75EFA4C
:103360000246FB68D31A41F28832934201D9032303
:103370004FE02B4B9B6803F00C027B685B689B0063
:103380009A42EBD1254B1B6803F007033A689A4237
:103390000CD2224B3A68D2B21A70204B1B6803F051
:1033A00007033A689A4201D0012332E07B681B6828
:1033B00003F00403002B08D0194B9B6823F4E05260
:1033C0007B68DB68164913438B607B681B6803F0DE
:1033D0000803002B09D0124B9B6823F460427B68E2
:1033E0001B69DB000E4913438B6000F021F8024695
:1033F0000B4B9B681B0903F00F030A49CB5C22FAB5
:1034000003F3094A1360094B1B681846FEF71CF8C2
:10341000002318461037BD4680BD00BF003C024067
:1034200000380240907300080000002004000020D3
:103430002DE9B04F94B000AF00237B640023FB6400
:1034400000233B640023BB64794B9B6803F00C03AF
:10345000082B0DD0082B00F2E180002B02D0042BAA
:1034600003D0DBE0734BBB64DBE0734BBB64D8E0A1
:103470006F4B5B6803F03F037B646D4B5B6803F449
:103480008003002B63D06A4B5B689B090022BB63FF
:10349000FA63BB6BC3F308033B6300237B63D7E989
:1034A0000C4522462B464FF000004FF00001590119
:1034B00041EAD261500102460B462146511A396158
:1034C000294663EB01037B614FF000024FF00003DC
:1034D000D7E904AB59468B01514643EA9163514603
:1034E0008A015146B2EB0108594663EB01094FF0DE
:1034F00000024FF000034FEAC90343EA58734FEA52
:10350000C80290469946234618EB0303BB602B463E
:1035100049EB0303FB604FF000024FF00003D7E9D3
:10352000024529464B02214643EAD15321464A022D
:10353000104619467B6C0022BB62FA62D7E90A2367
:10354000FDF73AFB02460B461346FB6458E0384B46
:103550005B689B09002218461146C0F308033B62D2
:1035600000237B62D7E9088942464B464FF00000B2
:103570004FF00001590141EAD261500102460B4669
:103580004146B2EB010A494663EB010B4FF00002E2
:103590004FF000034FEA8B1343EA9A634FEA8A1213
:1035A000B2EB0A0463EB0B054FF000024FF000038F
:1035B000EB0043EA5473E20014461D464346E31809
:1035C0003B604B4645EB03037B604FF000024FF03E
:1035D0000003D7E9004529468B02214643EA91536F
:1035E00021468A02104619467B6C0022BB61FA61B3
:1035F000D7E90623FDF7E0FA02460B461346FB64C3
:103600000B4B5B681B0C03F0030301335B003B6453
:10361000FA6C3B6CB2FBF3F3BB6402E0054BBB649A
:1036200000BFBB6C18465037BD46BDE8B08F00BF29
:10363000003802400024F40000127A0080B400AF89
:10364000034B1B681846BD465DF8047B704700BFFE
:103650000000002080B500AFFFF7F0FF0246054BE9
:103660009B689B0A03F007030349CB5C22FA03F330
:10367000184680BD00380240A073000880B500AF36
:10368000FFF7DCFF0246054B9B685B0B03F007036B
:103690000349CB5C22FA03F3184680BD0038024090
:1036A000A073000880B483B000AF786039607B6895
:1036B0000F221A60124B9B6803F003027B685A606A
:1036C0000F4B9B6803F0F0027B689A600C4B9B6881
:1036D00003F4E0527B68DA60094B9B68DB0803F473
:1036E000E0527B681A61074B1B6803F007023B68D6
:1036F0001A6000BF0C37BD465DF8047B704700BF01
:1037000000380240003C024080B582B000AF7860D3
:103710007B68002B01D1012341E07B6893F83D30A9
:10372000DBB2002B06D17B68002283F83C2078684E
:1037300000F039F87B68022283F83D207B681A6824
:103740007B6804331946104600F0CAF97B680122F1
:1037500083F846207B68012283F83E207B680122A3
:1037600083F83F207B68012283F840207B68012298
:1037700083F841207B68012283F842207B68012284
:1037800083F843207B68012283F844207B68012270
:1037900083F845207B68012283F83D2000231846EA
:1037A0000837BD4680BD80B483B000AF786000BFED
:1037B0000C37BD465DF8047B7047000080B485B0CF
:1037C00000AF78607B6893F83D30DBB2012B01D00D
:1037D000012344E07B68022283F83D207B681B685C
:1037E000DA687B681B6842F00102DA607B681B685C
:1037F0001E4A934218D07B681B68B3F1804F13D0E8
:103800007B681B681A4A93420ED07B681B68194A72
:10381000934209D07B681B68174A934204D07B68A7
:103820001B68164A934211D17B681B689B6803F0A2
:103830000703FB60FB68062B10D07B681B681A68C7
:103840007B681B6842F001021A6007E07B681B6816
:103850001A687B681B6842F001021A600023184650
:103860001437BD465DF8047B704700BF000001407F
:103870000004004000080040000C004000400140EF
:1038800080B582B000AF78607B681B681B6903F06D
:103890000203022B22D17B681B68DB6803F0020362
:1038A000022B1BD17B681B686FF002021A617B68D8
:1038B00001221A777B681B689B6903F00303002BC6
:1038C00003D0786800F0EEF805E0786800F0E0F8E2
:1038D000786800F0F1F87B6800221A777B681B6833
:1038E0001B6903F00403042B22D17B681B68DB688F
:1038F00003F00403042B1BD17B681B686FF00402E8
:103900001A617B6802221A777B681B689B6903F443
:103910004073002B03D0786800F0C4F805E07868A5
:1039200000F0B6F8786800F0C7F87B6800221A77D4
:103930007B681B681B6903F00803082B22D17B6896
:103940001B68DB6803F00803082B1BD17B681B682E
:103950006FF008021A617B6804221A777B681B6883
:10396000DB6903F00303002B03D0786800F09AF8BA
:1039700005E0786800F08CF8786800F09DF87B68C6
:1039800000221A777B681B681B6903F01003102B59
:1039900022D17B681B68DB6803F01003102B1BD15E
:1039A0007B681B686FF010021A617B6808221A7727
:1039B0007B681B68DB6903F44073002B03D07868D5
:1039C00000F070F805E0786800F062F8786800F0C0
:1039D00073F87B6800221A777B681B681B6903F009
:1039E0000103012B0ED17B681B68DB6803F0010328
:1039F000012B07D17B681B686FF001021A617868A0
:103A0000FDF722FC7B681B681B6903F08003802B99
:103A10000ED17B681B68DB6803F08003802B07D125
:103A20007B681B686FF080021A61786800F0E2F82A
:103A30007B681B681B6903F04003402B0ED17B6839
:103A40001B68DB6803F04003402B07D17B681B68D1
:103A50006FF040021A61786800F038F87B681B68E4
:103A60001B6903F02003202B0ED17B681B68DB68E9
:103A700003F02003202B07D17B681B686FF0200226
:103A80001A61786800F0ACF800BF0837BD4680BD09
:103A900080B483B000AF786000BF0C37BD465DF8DE
:103AA000047B704780B483B000AF786000BF0C37F0
:103AB000BD465DF8047B704780B483B000AF78608A
:103AC00000BF0C37BD465DF8047B704780B483B0FF
:103AD00000AF786000BF0C37BD465DF8047B7047CF
:103AE00080B485B000AF786039607B681B68FB608C
:103AF0007B68344A93420FD07B68B3F1804F0BD080
:103B00007B68314A934207D07B68304A934203D0A6
:103B10007B682F4A934208D1FB6823F07003FB6057
:103B20003B685B68FA681343FB607B68254A9342F5
:103B30001BD07B68B3F1804F17D07B68224A934239
:103B400013D07B68214A93420FD07B68204A93426E
:103B50000BD07B681F4A934207D07B681E4A934272
:103B600003D07B681D4A934208D1FB6823F440735D
:103B7000FB603B68DB68FA681343FB60FB6823F07B
:103B800080023B685B691343FB607B68FA681A60DC
:103B90003B689A687B68DA623B681A687B689A625D
:103BA0007B68084A934203D13B681A697B681A63B1
:103BB0007B6801225A6100BF1437BD465DF8047B63
:103BC000704700BF000001400004004000080040B2
:103BD000000C00400040014000440140004801400A
:103BE00080B483B000AF786000BF0C37BD465DF88D
:103BF000047B704780B483B000AF786000BF0C379F
:103C0000BD465DF8047B704780B582B000AF786038
:103C10007B68002B01D101233FE07B6893F83D30A6
:103C2000DBB2002B06D17B68002283F83C20786849
:103C3000FDF7C2FB7B68242283F83D207B681B686C
:103C4000DA687B681B6822F40052DA60786800F05A
:103C500029F97B681B681A697B681B6822F490420B
:103C60001A617B681B685A697B681B6822F02A020C
:103C70005A617B681B68DA687B681B6842F40052F3
:103C8000DA607B6800221A647B68202283F83D207A
:103C90007B68202283F83E20002318460837BD4663
:103CA00080BD80B58AB002AFF860B9603B60134652
:103CB000FB8000237B61FB6893F83D30DBB2202B57
:103CC0007CD1BB68002B02D0FB88002B01D10123E3
:103CD00075E0FB6893F83C30012B01D102236EE0C4
:103CE000FB68012283F83C20FB6800221A64FB6811
:103CF000212283F83D20FDF791FD7861FB68FA8869
:103D00009A84FB68FA88DA84FB689B68B3F5805F65
:103D100008D1FB681B69002B04D10023FB61BB6841
:103D2000BB6103E0BB68FB610023BB61FB68002251
:103D300083F83C202AE03B6800937B6900228021C5
:103D4000F86800F040F80346002B01D0032336E06A
:103D5000FB69002B0BD1BB691B881A46FB681B68EB
:103D6000C2F308025A60BB690233BB6107E0FB691A
:103D70001A78FB681B685A60FB690133FB61FB68BA
:103D8000DB8C9BB2013B9AB2FB68DA84FB68DB8C6C
:103D90009BB2002BCFD13B6800937B69002240216E
:103DA000F86800F010F80346002B01D0032306E06A
:103DB000FB68202283F83D20002300E00223184600
:103DC0002037BD4680BD80B590B000AFF860B960C7
:103DD0003B601346FB7150E0BB6CB3F1FF3F4CD02E
:103DE000BB6C002B07D0FDF719FD02463B68D31AC8
:103DF000BA6C9A4241D2FB681B680C33BB62BB6A47
:103E000053E8003F7B627B6A23F4D073FB63FB685B
:103E10001B680C33FA6B7A633B63396B7A6B41E84E
:103E20000023FB62FB6A002BE5D1FB681B6814339F
:103E30007B617B6953E8003F3B613B6923F00103F1
:103E4000BB63FB681B681433BA6B3A62FB61F969A8
:103E50003A6A41E80023BB61BB69002BE5D1FB68EE
:103E6000202283F83D20FB68202283F83E20FB6857
:103E7000002283F83C2003230FE0FB681B681A68CC
:103E8000BB681340BA689A420CBF01230023DBB21F
:103E90001A46FB799A429FD0002318464037BD4608
:103EA00080BD00002DE9B04FC0B000AFC7F8F400EE
:103EB000D7F8F4301B681B6923F44050D7F8F4306E
:103EC000D968D7F8F4301A6840EA01031361D7F8CB
:103ED000F4309A68D7F8F4301B691A43D7F8F430F5
:103EE0005B691A43D7F8F430DB691343C7F8F8303D
:103EF000D7F8F4301B68DB6823F4164121F00C017D
:103F0000D7F8F4301A68D7F8F8300B43D360D7F8F5
:103F1000F4301B685B6923F44070D7F8F43099697A
:103F2000D7F8F4301A6840EA01035361D7F8F43047
:103F30001A688F4B9A4205D0D7F8F4301A688D4B27
:103F40009A4204D1FFF79AFBC7F8FC0003E0FFF7A1
:103F500081FBC7F8FC00D7F8F430DB69B3F5004FFC
:103F600040F00C81D7F8FC300022C7F8E830C7F8E1
:103F7000EC20D7E93A4522462B469118B9655B41BA
:103F8000FB65D7E91623214612EB0108294643EBCE
:103F900001094FF000024FF000034FEAC90343EA62
:103FA00058734FEAC80290469946234618EB03031C
:103FB000C7F8E0302B4649EB0303C7F8E430D7F8E5
:103FC000F4305B680022C7F8D830C7F8DC20D7E9A6
:103FD00036120B46DB183B65134642EB03037B6549
:103FE000D7E91423D7E93801FCF7E6FD02460B4672
:103FF000614BA3FB02235B091C01D7F8FC300022B4
:10400000C7F8D030C7F8D420D7E9348942464B46A8
:104010009118B9645B41FB64D7E91223414612EB66
:10402000010A494643EB010B4FF000024FF0000339
:104030004FEACB0343EA5A734FEACA0292469B46C1
:1040400043461AEB0303C7F8C8304B464BEB030358
:10405000C7F8CC30D7F8F4305B680022C7F8C0301E
:10406000C7F8C420D7E930120B46DB183B6413466F
:1040700042EB03037B64D7E91023D7E93201FCF755
:104080009BFD02460B4611463B4BA3FB01235B09FC
:10409000642202FB03F3CB1ADB0003F13202364B3E
:1040A000A3FB02235B095B0003F4F8731C44D7F8FD
:1040B000FC300022C7F8B830C7F8BC20D7E92E89F9
:1040C00042464B469118B9635B41FB63D7E90E2327
:1040D00041465118396349464B417B634FF000021A
:1040E0004FF00003D7E90CAB5946CB00514643EAE9
:1040F00051735146CA0010461946034642469B1862
:10410000C7F8B0304B460A4642EB0303C7F8B43059
:10411000D7F8F4305B680022C7F8A830C7F8AC20A5
:10412000D7E92A120B46DB18BB62134642EB0303A6
:10413000FB62D7E90A23D7E92C01FCF73DFD0246D3
:104140000B460D4BA3FB02135B09642101FB03F338
:10415000D31ADB003233084AA2FB03235B0903F0C6
:104160000702D7F8F4301B6822449A6005E100BFCB
:1041700000100140001401401F85EB51D7F8FC30BE
:104180000022C7F8A030C7F8A420D7E92889424602
:104190004B46911839625B417B62D7E9082341465F
:1041A0005418494643EB01054FF000024FF000035D
:1041B000EB0043EA5473E20014461D464346E318FD
:1041C000C7F898304B4645EB0303C7F89C30D7F847
:1041D000F4305B680022C7F89030C7F894204FF0A5
:1041E00000024FF00003D7E9244529468B00214601
:1041F00043EA917321468A00D7E92601FCF7DCFCEB
:1042000002460B46604BA3FB02235B091C01D7F857
:10421000FC300022C7F88830C7F88C20D7E9228903
:1042200042464B469118B9615B41FB61D7E90623D1
:1042300041465118396149464B417B614FF00002BC
:104240004FF00003D7E904AB5946CB00514643EA8F
:1042500051735146CA0010461946034642469B1800
:10426000C7F880304B460A4642EB0303C7F8843058
:10427000D7F8F4305B680022BB67FA674FF00002A2
:104280004FF00003D7E91E8949468B00414643EAB7
:10429000917341468A00D7E92001FCF78DFC024664
:1042A0000B46394BA3FB02135B09642101FB03F3AB
:1042B000D31A1B013233344AA2FB03235B0903F0F8
:1042C000F0031C44D7F8FC3000223B677A67D7E93B
:1042D0001C8942464B469118B9605B41FB60D7E9A7
:1042E000022341465118396049464B417B604FF0EB
:1042F00000024FF00003D7E900AB5946CB0051460E
:1043000043EA51735146CA001046194603464246D5
:104310009B18BB664B460A4642EB0303FB66D7F885
:10432000F4305B6800223B667A664FF000024FF083
:104330000003D7E9188949468B00414643EA917347
:1043400041468A00D7E91A01FCF736FC02460B46C3
:104350000D4BA3FB02135B09642101FB03F3D31A8A
:104360001B013233084AA2FB03235B0903F00F024F
:10437000D7F8F4301B6822449A6000BF07F58077B5
:10438000BD46BDE8B08F00BF1F85EB5138B52DEDA0
:10439000028B55EC104B00F025F822462B462046A8
:1043A0002946B0EE408AF0EE608AFCF7C7FB90B970
:1043B0000022002320462946FCF798FB58B100F064
:1043C000C3F8212303600022002310461946FCF79E
:1043D00045FA41EC180BB0EE480AF0EE680ABDEC65
:1043E000028B38BD2DE9F04155EC104B554EAE43D4
:1043F00010EE100A10EE103A2A46294610D110EE9F
:10440000102A2B46FCF700F902460B4620462946A7
:10441000FBF744FF04460D4645EC104BBDE8F08128
:10442000002D10DC25F000463043F5D05DB110EED4
:10443000102A2B4610EE100AFBF72EFF02460B4601
:10444000FCF70CFAE6E7121574D0D407C1F3130198
:10445000A2F2FF3741F480115EBFDA0F5B0002EB7E
:1044600041010024DA0F02EB41017F105B001625A9
:1044700020464FF4001286188E42DEBF891BB0180A
:10448000A4184900013D01EBD3714FEA52024FEAF3
:104490004303F0D12A464FF0200E4FF000468142F0
:1044A00006EB050C02DC13D19C4511D8BCF1000FC2
:1044B0000CEB060543DA002D41DB00F10108091A77
:1044C0009C4588BF01F1FF31A3EB0C033244404609
:1044D0004FEAD37CBEF1010E0CEB41014FEA4303DE
:1044E0004FEA5606DBD10B4306D0501C13BF0132F6
:1044F0000134724622F0010263105208E10703F111
:104500007F5303F5001348BF42F0004203EB075509
:10451000144681E7D90A15385B050029FAD0CD0287
:104520000AD5C2F1200423FA04F4551E9340214316
:10453000421B8AE71046F0E749000132EFE7804668
:10454000BDE700BF0000F07F014B1868704700BF57
:104550000C00002070B50D4D0D4C641BA4100026FE
:10456000A64209D10B4D0C4C02F002FF641BA410B3
:104570000026A64205D170BD55F8043B9847013688
:10458000EEE755F8043B98470136F2E794770008C8
:10459000947700089477000898770008024403464F
:1045A000934200D1704703F8011BF9E72DE9FF475B
:1045B00055EC104B002D0E4619462B46BBBF05F19E
:1045C00000431D4600232D230B700D9BDDF830A00A
:1045D000914623F02008BCBF22461446B8F1460F8E
:1045E00005D0B8F1450F00D10136022100E00321CA
:1045F00003AB019302AB009345EC104B534632469C
:1046000000F0EAFCB8F1470F074602D119F0010F9C
:1046100022D0B8F1460F07EB060910D13B78302BBA
:104620000AD10022002320462946FCF755FA18B982
:10463000C6F10106CAF80060DAF800309944002299
:10464000002320462946FCF747FA08B1CDF80C9024
:104650003022039B4B4507D3039B0E9ADB1B384646
:10466000136004B0BDE8F087591C03911A70F0E79D
:10467000F7B503460029B8BF494203F8022BB4BF7F
:104680002D222B22092942702ADD0DF10704A446B0
:104690000A27A6460A4691FBF7F607FB16153035A2
:1046A000632A04F1FF340EF8015C3146F1DC30314D
:1046B000AEF1020504F8011C441C294661450AD3E9
:1046C0000DF10902A2EB0E02654588BF00221344DA
:1046D000181A03B0F0BD11F8012B04F8012FEDE713
:1046E000302330318370C170031DF1E72DE9F04FA5
:1046F0002DED028B8DB00C46DDF8608016461F460E
:10470000054601F057FAD0F800A05046FBF768FDC7
:1047100000230A9323680593D8F8003094F818B062
:10472000073323F0070303F10802C8F80020D3E998
:104730000023C4E91223D4E9128929F00043079326
:10474000CDF8188008EE100A9F4BDDE906014FF006
:10475000FF32FCF7F3F988BBDDE906019A4B4FF015
:10476000FF32FCF7CDF948BB002200234046494602
:10477000FCF7BCF910B12D2384F84330934B9448D7
:10478000BBF1470F94BF9846804603232361059BE6
:1047900023F0040222604FF00009009733460BAA71
:1047A0002146284600F0D8F9013040F090804FF0C3
:1047B000FF300DB0BDEC028BBDE8F08F42464B469A
:1047C00040464946FCF7BAF940B14B46002BBCBF06
:1047D0002D2384F843307F487F4BD1E763680BF08B
:1047E000DF0206925A1C3FD106236360059B616875
:1047F00043F48062002303930AABCDE901B309AB14
:1048000049EC108B009322600DF123032846FFF73B
:10481000CDFE069B0999472B804608D1C81C02DBB8
:104820006368994241DDABF1020B5FFA8BFBBBF190
:10483000650F20D801395A4604F150000991FFF75D
:1048400017FF0A9A1318012A8146236102DC2268A5
:10485000D20701D5013323619DF82330002B9CD072
:104860002D2384F8433098E7069A472ABED1002BBF
:10487000BCD10123B9E7BBF1660F18D100296368E9
:104880000BDD216113B92268D00702D501330B4437
:104890002361A1654FF00009DEE713B92268D20752
:1048A00001D50233F4E70123F2E74FF0670B0A9BCF
:1048B000994205DB23682161D807EAD54B1CE7E75D
:1048C0000029D4BFC1F1020201221344E0E72368AA
:1048D0005A0507D42369424631462846B847013075
:1048E0002CD164E7BBF1650F40F2E080D4E91201FE
:1048F00000220023FCF7F0F8002834D0374A0123C7
:1049000031462846B84701303FF451AFDDE909236D
:104910009A4202DB2368D80710D518EE103A5246A7
:1049200031462846B84701303FF441AF4FF0000808
:1049300004F11A090A9B013B434509DC23689B07E4
:1049400000F10581E0680B9B9842B8BF184630E73C
:1049500001234A4631462846B84701303FF427AF85
:1049600008F10108E6E7099B002B39DC1B4A01230B
:1049700031462846B84701303FF419AFDDE9092335
:10498000134302D12368D907D8D518EE103A5246FE
:1049900031462846B84701303FF409AF4FF00009CF
:1049A00004F11A0A099B5B424B4501DC0A9B92E722
:1049B0000123524631462846B84701303FF4F7AE4E
:1049C00009F10109EEE700BFFFFFEF7FB4730008B4
:1049D000B8730008C0730008BC730008C4730008F3
:1049E0000A9AA36D9A42A8BF1A46002A914637DC5C
:1049F0004FF0000B29EAE97904F11A02A36D05933F
:104A0000A3EB09035B4533DCDDE909239A423BDB79
:104A10002368DA0738D40A9B059A09999A1AA3EBF6
:104A200001099145A8BF9146B9F1000F35DC4FF05F
:104A3000000829EAE97904F11A0ADDE909239B1A39
:104A4000A3EB090343457FF779AF01235246314673
:104A50002846B84701303FF4AAAE08F10108ECE758
:104A60001346314642462846B8470130C0D19EE63B
:104A70000123314628460592B84701303FF497AEEE
:104A8000059A0BF1010BB9E718EE103A5246314680
:104A90002846B8470130BED189E6059A4B464244C4
:104AA00031462846B8470130C1D180E60A9A012A2A
:104AB00001DCDB0738D50123424631462846B8479A
:104AC00001303FF474AE18EE103A52463146284693
:104AD000B84701303FF46BAED4E912010022002345
:104AE000FBF7FAFFD8B90A9B08F10102013B3146F6
:104AF0002846B84701300ED159E6012352463146C7
:104B00002846B84701303FF452AE08F101080A9B2D
:104B1000013B4345F1DC4B4604F15002DCE64FF02B
:104B2000000804F11A0AF2E701234246DFE70123F5
:104B30004A4631462846B84701303FF438AE08F1BE
:104B40000108E3680B995B1A4345F0DCFAE64FF085
:104B5000000804F11909F4E72DE9F04716469946D3
:104B60008A680B69DDF820809342B8BF1346336032
:104B700091F8432007460C460AB10133336023689D
:104B8000990642BF336802333360256815F0060585
:104B900006D104F1190AE36832689B1AAB4226DC9D
:104BA00094F84320131E226818BF012392062BD4C9
:104BB00004F1430249463846C04701301ED02368FD
:104BC000E568326803F00603042B08BFAD1AA3683A
:104BD00022690CBF25EAE57500259342C4BF9B1AE4
:104BE000ED1800261A34B5421AD1002008E001233E
:104BF000524649463846C047013003D14FF0FF3096
:104C0000BDE8F0870135C6E7E1185A1C302081F86D
:104C10004300224494F8451082F843100233C7E75A
:104C20000123224649463846C0470130E6D00136C6
:104C3000D9E700002DE9FF470F7E0C9D782F9146A4
:104C400080460C469A4601F1430207D8622F0AD8E3
:104C5000002F00F0D880582F00F0A38004F1420507
:104C600084F842703AE0A7F16303152BF6D801A14E
:104C700051F823F0CD4C0008E14C00085D4C0008D1
:104C80005D4C00085D4C00085D4C0008E14C0008DC
:104C90005D4C00085D4C00085D4C00085D4C000850
:104CA000ED4D0008114D0008CF4D00085D4C000887
:104CB0005D4C00080F4E00085D4C0008114D0008C7
:104CC0005D4C00085D4C0008D74D00082B681A1D8C
:104CD0001B682A6004F1420584F842300123A3E0F6
:104CE00020682968060601F104030AD50E682B60C6
:104CF000002E03DA2D23764284F843305E480A23DF
:104D000019E00E682B6010F0400F18BF36B2EFE7C5
:104D10002B682068191D2960010601D51E6802E074
:104D20004606FBD51E8854486F2F0CBF08230A2364
:104D3000002184F843106568A560002DA2BF21689A
:104D400021F0040121600EB9002D4DD01546B6FBAF
:104D5000F3F103FB1167C75D05F8017D3746BB42E0
:104D60000E46F4D9082B0BD12368DE0708D523693A
:104D700061689942DEBF302305F8013C05F1FF353B
:104D8000521B2261CDF800A04B4603AA21464046A3
:104D9000FFF7E2FE01304CD14FF0FF3004B0BDE828
:104DA000F087354881F845702968236851F8046B0D
:104DB00029601D0614D5DF0744BF43F0200323609C
:104DC0001EB9236823F0200323601023B0E7236873
:104DD00043F0200323607823284884F84530E3E734
:104DE000590648BFB6B2E6E71546BBE72B6826680A
:104DF0006169181D286035061B6801D5196002E03D
:104E00007006FBD51980002323611546BAE72B688D
:104E10001A1D2A601D68626800212846FBF7E8F920
:104E200008B1401B606063682361002384F843304D
:104E3000A8E723692A4649464046D0470130ABD00F
:104E400023689B0713D4E068039B9842B8BF1846B9
:104E5000A4E70123324649464046D04701309BD063
:104E60000135E36803995B1AAB42F2DCEBE70025FE
:104E700004F11906F5E700BFC6730008D7730008F0
:104E80000EB400B59CB01DAB029006906FF00041CF
:104E9000094807910491094953F8042B05910068CA
:104EA000019302A901F076FB029B00221A701CB04C
:104EB0005DF804EB03B070470C0000200802FFFF10
:104EC0002DE9F74F03690C69A3420746C0F28180C0
:104ED000013C01F1140800F1140505EB8403019372
:104EE00058F8243055F8242001339A424FEA840BB5
:104EF00008EB8409B2FBF3F631D34FF0000E4046C5
:104F0000AC46F24650F8042B93B206FB03E34FEA9B
:104F1000134E9BB2AAEB0303DCF800A0120C13FAA9
:104F20008AF306FB02E20093009B4FEA124E92B214
:104F3000C2EB1A4202EB2342BDF80030814543EA3E
:104F400002434CF8043B4FEA224ADBD255F80B30BF
:104F50002BB9019B043B9D421A462ED33C61384637
:104F600001F0C4F8002824DB013628464FF0000C7D
:104F700058F8042BD0F800E093B2ACEB0303120C0A
:104F800013FA8EF3C2EB1E4202EB23429BB243EABA
:104F90000243C14540F8043B4FEA224CE8D255F8A1
:104FA000242005EB840322B9043B9D421A460AD310
:104FB0003C61304603B0BDE8F08F1268043B002A24
:104FC000CCD1013CC7E71268043B002AF0D1013C78
:104FD000EBE70020EEE700002DE9F04F2DED048B0C
:104FE00057EC106B93B0456ADDF88080069110EEA7
:104FF00010AA044609920C93BB4675B9102000F024
:10500000DDFD0246606220B9A74BEA21A74801F006
:10501000D1FBC0E901550560C560636A196851B1EB
:105020005A684A60012393408B60204600F01CFEC2
:10503000636A00221A603B1EAABF002323F0004BC4
:10504000C8F800309A4BBCBF0122C8F8002033EAF0
:105050000B031BD10C9A42F20F731360CBF31303B3
:10506000334300F09285219B63B9924B22E0924B2F
:1050700001930833219A1360019813B0BDEC048B9F
:10508000BDE8F08F8B4B01930333F3E7002200233D
:1050900050465946FBF720FD4BEC19AB804658B102
:1050A0000C9A01231360219B002B00F06B85834831
:1050B0001860431E0193DFE74BEC10AB10AA11A957
:1050C000204601F0B9F8CBF30A5508EE100A002D7E
:1050D00000F0848019EE903AC3F3130343F07F5736
:1050E000564647F44017A5F2FF35CDF83880744B8B
:1050F000002230463946FBF7CFF865A3D3E90023F9
:10510000FBF782FA64A3D3E90023FBF7C7F806464E
:1051100028460F46FBF70EFA61A3D3E90023FBF7FD
:1051200073FA02460B4630463946FBF7B7F8064697
:105130000F46FBF719FD0022009000233046394648
:10514000FBF7D4FC50B10098FBF7F4F932463B462C
:10515000FBF7C2FC10B9009B013B0093009B162B90
:105160005AD8009A574B03EBC203D3E9002351EC02
:10517000190BFBF7BBFC002850D0009B013B0093B0
:1051800000230B93109B5D1B6B1E059345BFC5F160
:1051900001030493002300234CBF05930493009B59
:1051A000002B3DDB059B009A0A92134405930023D4
:1051B0000793069B092B00F28980052BC4BF043B93
:1051C0000693069BA3F10203CCBF00250125032B08
:1051D00000F28780DFE803F02D3A3859DDE91053FB
:1051E0001D4405F23243202BC1BFC3F1400305F239
:1051F00012400BFA03F326FA00F0DABFC3F12003E2
:1052000006FA03F01843FBF785F901230646A1F1DE
:10521000F877013D0E936AE70123B2E70B90B1E7FF
:10522000049B009A9B1A04935342079300230A930A
:10523000BFE700230893099B002B55DC0123CDE930
:1052400002331A4609920CE00123F3E70023099A7E
:105250000893009B134402930133012B0393B8BFBF
:105260000123606A00224260042202F114069E4279
:1052700041683DD9204600F0B7FC019000283BD1A1
:10528000114B02464FF4D571C0E60123DFE700BFA2
:1052900061436F63A787D23FB3C8608B288AC63F3C
:1052A000FB799F501344D33FF57300080C7400083A
:1052B0000000F07FF1730008E8730008C573000870
:1052C0000000F83F007500086774000801250023FE
:1052D000069308954FF0FF33CDE9023300221223E5
:1052E000B0E701230893F5E7099BCDE90233B8E75E
:1052F000013141605200B8E7636A019A1A60039B6A
:105300000E2B00F29D80002D00F09A80009B002B58
:1053100032DDB74A03F00F0302EBC303D3E9008980
:10532000009BD8054FEA231716D5B24B51EC190B49
:10533000D3E90823FBF792FA07F00F0782468B4662
:105340000325AC4E57B942464B4650465946FBF7EB
:1053500085FA82468B4628E00225F2E7F90708D550
:1053600040464946D6E90023FBF74EF90135804611
:1053700089467F100836E5E700F09B80009B9D4F33
:105380005E429B4B06F00F0203EBC203D3E90023FE
:1053900051EC190BFBF738F9361182468B46002386
:1053A0000225002E7AD1002BD3D10B9B002B00F0CD
:1053B0008280914B002250465946FBF797FB00280C
:1053C00079D0039B002B76D0029B002B36DD009B0F
:1053D000504659465F1E0022884BFBF715F9029E86
:1053E00082468B4601352846FBF7A4F852465B46B9
:1053F000FBF70AF9824B0022FAF750FFD046D94654
:105400008246A1F1507B002E58D17E4B00224046AF
:105410004946FAF741FF52465B4680468946FBF70C
:1054200083FB002840F0958252460BF10043404632
:105430004946FBF75BFB002840F089825BEC19AB27
:10544000119B002BC0F24881009A0E2A00F3448180
:10545000674B03EBC203D3E90089099B002B80F261
:10546000D580039B002B00F3D18040F06F82654B09
:10547000002240464946FBF7C7F852465B46FBF719
:1054800049FB039E3746002840F04582019D3123A9
:1054900005F8013B009B0133009340E2F20705D57C
:1054A000D7E90023FBF7B0F8013501237610083760
:1054B00077E7022579E7009F039E94E701994C4B1B
:1054C00031440D91089903EBC60353E902230029E7
:1054D00043D04D490020FBF7C1F952465B46FAF72D
:1054E000DBFE019D82468B4649464046FBF73CFB6E
:1054F0000646FBF71FF802460B4640464946FAF7B8
:10550000CBFE303605F8016B52465B468046894635
:10551000FBF7ECFA002863D142464B46364900209F
:10552000FAF7BAFE52465B46FBF7E0FA002840F075
:10553000B5800D9B9D4281D0304B0022504659468C
:10554000FBF762F82D4B82468B46404649460022C7
:10555000FBF75AF880468946C6E750465946FBF79E
:1055600053F80D9B019D0F9382468B46494640465A
:10557000FBF7FAFA0646FAF7DDFF303602460B462D
:1055800040464946FAF788FE05F8016B0D9B9D429F
:10559000804689464FF0000224D11B4B50465946A5
:1055A000FAF77CFE02460B4640464946FBF7BCFA3A
:1055B000002873D152465B4613490020FAF76CFE6F
:1055C00002460B4640464946FBF790FA00283FF456
:1055D00035AF0F9D6B1E0F9315F8013C302BF8D0A3
:1055E000009749E0054BFBF70FF880468946BDE779
:1055F00000750008D87400080000F03F0000244047
:1056000000001C40000014400000E03F019D564691
:105610005F4642464B4630463946FBF71FF9FBF7DB
:10562000A3FA8246FAF786FF42464B46FAF7ECFFAA
:1056300002460B46304639460AF13006FAF72CFE90
:1056400005F8016B019E039FAE1BB74202460B4655
:1056500035D1FAF723FE42464B4606460F46FBF786
:1056600063FAD0B942464B4630463946FBF734FA26
:1056700010B11AF0010F10D1204618EE101A00F0E8
:10568000F3FA002300982B700C9B01301860219BCB
:10569000002B3FF4F1AC1D60EEE4009F2B461D464D
:1056A00013F8012D392A06D1019A9A42F7D10199AE
:1056B000302201370A701A7801321A7090E7A64B2F
:1056C0000022FAF7A1FF0022002306460F46FBF74F
:1056D00003FA00289DD0CFE7089A002A00F0D7806F
:1056E000069A012A00F3BA800E9A002A00F0B280CE
:1056F00003F23343079E049D049A1A440492059AC8
:1057000001211A442046059200F066FB0746002D51
:105710000CDD059B002B09DDAB42049AA8BF2B468C
:10572000D21A0492059AED1AD31A0593079B1BB35C
:10573000089B002B00F0AF80002E13DD3946324667
:10574000204600F009FC18EE102A014607462046C4
:1057500000F058FB18EE101A8046204600F084FA3C
:1057600008EE108A079B9A1B06D018EE101A2046E6
:1057700000F0F2FB08EE100A0121204600F02CFB9D
:105780000A9B002B064640F388801A4601462046B5
:1057900000F0E2FB069B012B064640F381804FF0B0
:1057A0000008336906EB8303186900F0C5FAC0F1FD
:1057B0002000059B184410F01F0000F09280C0F1FB
:1057C0002003042B40F38A80C0F11C00049B034497
:1057D0000493059B034405440593049B002B07DDBC
:1057E00018EE101A1A46204600F010FC08EE100AB7
:1057F000059B002B05DD31461A46204600F006FCCD
:1058000006460B9B002B6ED018EE100A314600F0B6
:105810006DFC002867DA009B013B18EE101A00931C
:105820000A220023204600F041FA089B08EE100AE5
:10583000002B00F0B181002339460A22204600F0F7
:1058400035FA029B002B074600F38E80069B022B45
:1058500051DC89E0109BC3F136034BE7039B5E1ECE
:10586000079BB342BFBF079B0796F21A0A9BB6BFBE
:105870009B189E1B0A93039BB8BF0026002BB7BF43
:10588000DDE90323DDE903359D1A002334E7079E94
:10589000049D089F3BE7079A67E7069B012B18DCEE
:1058A000BAF1000F15D1CBF3130393B92BF00043DA
:1058B0001B0D1B0583B1049B01330493059B01332E
:1058C00005934FF001080A9B002B7FF46AAF01207B
:1058D0006FE74FF00008F6E79846F4E73FF47DAF36
:1058E00018461C3072E7039B002B37DC069B022B0B
:1058F00034DD039B0293029B6BB93146052220469F
:1059000000F0D4F90146064618EE100A00F0EEFB4E
:1059100000283FF7BBAD099B019DDB4300934FF08F
:1059200000083146204600F09FF9002F3FF4A4AE56
:10593000B8F1000F05D0B84503D04146204600F02D
:1059400093F93946204600F08FF995E60026374650
:10595000E1E70097374699E500002440089B002BBB
:1059600000F0CA80039B0293002D05DD39462A46CC
:10597000204600F04BFB0746B8F1000F5BD079687A
:10598000204600F031F9054628B9874B024640F21F
:10599000EA21FFF73BBB3A690232920007F10C01A2
:1059A0000C3000F013F901222946204600F02EFBAE
:1059B000019B03F10109DDE90123134405930AF07A
:1059C0000103B84604930746314618EE100AFFF764
:1059D00077FA4146029000F1300A18EE100A00F002
:1059E00085FB3A4603903146204600F09BFBC26897
:1059F00009F1FF3B054602BB014618EE100A00F014
:105A000075FB024629462046079200F02DF9DDE994
:105A1000063243EA0201049B0B434D460FD1BAF113
:105A2000390F2AD0039B002B02DD029B03F1310AC0
:105A30008BF800A075E73846BAE70122E2E7039B3E
:105A4000002B04DB06990B4304990B4322D1002A57
:105A5000EEDD18EE101A0122204600F0D7FA31468A
:105A600008EE100A00F042FB002803DCE0D11AF037
:105A7000010FDDD0BAF1390FD7D139238BF80030BF
:105A80002B461D46013B15F8012C392A71D00132F5
:105A90001A7046E7002A07DDBAF1390FEDD00AF196
:105AA00001038BF800303CE7059B09F801AC9945F0
:105AB00047D018EE101A00230A22204600F0F6F80C
:105AC000B84508EE100A4FF000034FF00A024146B5
:105AD000204606D100F0EAF88046074609F10109A0
